{
  "contractName": "ChingGu",
  "abi": [
    {
      "inputs": [],
      "stateMutability": "nonpayable",
      "type": "constructor"
    },
    {
      "anonymous": false,
      "inputs": [
        {
          "indexed": true,
          "internalType": "address",
          "name": "owner",
          "type": "address"
        },
        {
          "indexed": true,
          "internalType": "address",
          "name": "approved",
          "type": "address"
        },
        {
          "indexed": true,
          "internalType": "uint256",
          "name": "tokenId",
          "type": "uint256"
        }
      ],
      "name": "Approval",
      "type": "event"
    },
    {
      "anonymous": false,
      "inputs": [
        {
          "indexed": true,
          "internalType": "address",
          "name": "owner",
          "type": "address"
        },
        {
          "indexed": true,
          "internalType": "address",
          "name": "operator",
          "type": "address"
        },
        {
          "indexed": false,
          "internalType": "bool",
          "name": "approved",
          "type": "bool"
        }
      ],
      "name": "ApprovalForAll",
      "type": "event"
    },
    {
      "anonymous": false,
      "inputs": [
        {
          "indexed": true,
          "internalType": "address",
          "name": "previousOwner",
          "type": "address"
        },
        {
          "indexed": true,
          "internalType": "address",
          "name": "newOwner",
          "type": "address"
        }
      ],
      "name": "OwnershipTransferred",
      "type": "event"
    },
    {
      "anonymous": false,
      "inputs": [
        {
          "indexed": false,
          "internalType": "uint256",
          "name": "tokenId",
          "type": "uint256"
        },
        {
          "indexed": false,
          "internalType": "uint256",
          "name": "degree",
          "type": "uint256"
        }
      ],
      "name": "Rare",
      "type": "event"
    },
    {
      "anonymous": false,
      "inputs": [
        {
          "indexed": true,
          "internalType": "address",
          "name": "from",
          "type": "address"
        },
        {
          "indexed": true,
          "internalType": "address",
          "name": "to",
          "type": "address"
        },
        {
          "indexed": true,
          "internalType": "uint256",
          "name": "tokenId",
          "type": "uint256"
        }
      ],
      "name": "Transfer",
      "type": "event"
    },
    {
      "inputs": [
        {
          "internalType": "address",
          "name": "to",
          "type": "address"
        },
        {
          "internalType": "uint256",
          "name": "tokenId",
          "type": "uint256"
        }
      ],
      "name": "approve",
      "outputs": [],
      "stateMutability": "nonpayable",
      "type": "function"
    },
    {
      "inputs": [
        {
          "internalType": "address",
          "name": "owner",
          "type": "address"
        }
      ],
      "name": "balanceOf",
      "outputs": [
        {
          "internalType": "uint256",
          "name": "",
          "type": "uint256"
        }
      ],
      "stateMutability": "view",
      "type": "function"
    },
    {
      "inputs": [
        {
          "internalType": "uint256",
          "name": "tokenId",
          "type": "uint256"
        }
      ],
      "name": "getApproved",
      "outputs": [
        {
          "internalType": "address",
          "name": "",
          "type": "address"
        }
      ],
      "stateMutability": "view",
      "type": "function"
    },
    {
      "inputs": [
        {
          "internalType": "address",
          "name": "owner",
          "type": "address"
        },
        {
          "internalType": "address",
          "name": "operator",
          "type": "address"
        }
      ],
      "name": "isApprovedForAll",
      "outputs": [
        {
          "internalType": "bool",
          "name": "",
          "type": "bool"
        }
      ],
      "stateMutability": "view",
      "type": "function"
    },
    {
      "inputs": [],
      "name": "name",
      "outputs": [
        {
          "internalType": "string",
          "name": "",
          "type": "string"
        }
      ],
      "stateMutability": "view",
      "type": "function"
    },
    {
      "inputs": [],
      "name": "owner",
      "outputs": [
        {
          "internalType": "address",
          "name": "",
          "type": "address"
        }
      ],
      "stateMutability": "view",
      "type": "function"
    },
    {
      "inputs": [
        {
          "internalType": "uint256",
          "name": "tokenId",
          "type": "uint256"
        }
      ],
      "name": "ownerOf",
      "outputs": [
        {
          "internalType": "address",
          "name": "",
          "type": "address"
        }
      ],
      "stateMutability": "view",
      "type": "function"
    },
    {
      "inputs": [],
      "name": "renounceOwnership",
      "outputs": [],
      "stateMutability": "nonpayable",
      "type": "function"
    },
    {
      "inputs": [
        {
          "internalType": "address",
          "name": "from",
          "type": "address"
        },
        {
          "internalType": "address",
          "name": "to",
          "type": "address"
        },
        {
          "internalType": "uint256",
          "name": "tokenId",
          "type": "uint256"
        }
      ],
      "name": "safeTransferFrom",
      "outputs": [],
      "stateMutability": "nonpayable",
      "type": "function"
    },
    {
      "inputs": [
        {
          "internalType": "address",
          "name": "from",
          "type": "address"
        },
        {
          "internalType": "address",
          "name": "to",
          "type": "address"
        },
        {
          "internalType": "uint256",
          "name": "tokenId",
          "type": "uint256"
        },
        {
          "internalType": "bytes",
          "name": "_data",
          "type": "bytes"
        }
      ],
      "name": "safeTransferFrom",
      "outputs": [],
      "stateMutability": "nonpayable",
      "type": "function"
    },
    {
      "inputs": [
        {
          "internalType": "address",
          "name": "operator",
          "type": "address"
        },
        {
          "internalType": "bool",
          "name": "approved",
          "type": "bool"
        }
      ],
      "name": "setApprovalForAll",
      "outputs": [],
      "stateMutability": "nonpayable",
      "type": "function"
    },
    {
      "inputs": [
        {
          "internalType": "bytes4",
          "name": "interfaceId",
          "type": "bytes4"
        }
      ],
      "name": "supportsInterface",
      "outputs": [
        {
          "internalType": "bool",
          "name": "",
          "type": "bool"
        }
      ],
      "stateMutability": "view",
      "type": "function"
    },
    {
      "inputs": [],
      "name": "symbol",
      "outputs": [
        {
          "internalType": "string",
          "name": "",
          "type": "string"
        }
      ],
      "stateMutability": "view",
      "type": "function"
    },
    {
      "inputs": [
        {
          "internalType": "uint256",
          "name": "tokenId",
          "type": "uint256"
        }
      ],
      "name": "tokenURI",
      "outputs": [
        {
          "internalType": "string",
          "name": "",
          "type": "string"
        }
      ],
      "stateMutability": "view",
      "type": "function"
    },
    {
      "inputs": [
        {
          "internalType": "address",
          "name": "from",
          "type": "address"
        },
        {
          "internalType": "address",
          "name": "to",
          "type": "address"
        },
        {
          "internalType": "uint256",
          "name": "tokenId",
          "type": "uint256"
        }
      ],
      "name": "transferFrom",
      "outputs": [],
      "stateMutability": "nonpayable",
      "type": "function"
    },
    {
      "inputs": [
        {
          "internalType": "address",
          "name": "newOwner",
          "type": "address"
        }
      ],
      "name": "transferOwnership",
      "outputs": [],
      "stateMutability": "nonpayable",
      "type": "function"
    },
    {
      "inputs": [
        {
          "internalType": "uint256",
          "name": "job",
          "type": "uint256"
        }
      ],
      "name": "mint",
      "outputs": [],
      "stateMutability": "nonpayable",
      "type": "function"
    },
    {
      "inputs": [
        {
          "internalType": "address",
          "name": "account",
          "type": "address"
        }
      ],
      "name": "collectables",
      "outputs": [
        {
          "internalType": "uint256[]",
          "name": "",
          "type": "uint256[]"
        }
      ],
      "stateMutability": "view",
      "type": "function"
    },
    {
      "inputs": [
        {
          "internalType": "uint64",
          "name": "energy",
          "type": "uint64"
        },
        {
          "internalType": "uint64",
          "name": "information",
          "type": "uint64"
        },
        {
          "internalType": "uint64",
          "name": "decision",
          "type": "uint64"
        },
        {
          "internalType": "uint64",
          "name": "relate",
          "type": "uint64"
        }
      ],
      "name": "getMBTI",
      "outputs": [
        {
          "internalType": "string",
          "name": "",
          "type": "string"
        }
      ],
      "stateMutability": "pure",
      "type": "function"
    },
    {
      "inputs": [
        {
          "internalType": "uint256",
          "name": "job",
          "type": "uint256"
        }
      ],
      "name": "getMBTI",
      "outputs": [
        {
          "internalType": "string",
          "name": "",
          "type": "string"
        }
      ],
      "stateMutability": "pure",
      "type": "function"
    },
    {
      "inputs": [
        {
          "internalType": "uint256",
          "name": "tokenId",
          "type": "uint256"
        },
        {
          "internalType": "string",
          "name": "_tokenURI",
          "type": "string"
        }
      ],
      "name": "setTokenURI",
      "outputs": [],
      "stateMutability": "nonpayable",
      "type": "function"
    },
    {
      "inputs": [
        {
          "internalType": "address",
          "name": "account",
          "type": "address"
        },
        {
          "internalType": "uint256",
          "name": "tokenId",
          "type": "uint256"
        }
      ],
      "name": "properties",
      "outputs": [
        {
          "internalType": "uint256",
          "name": "amount",
          "type": "uint256"
        },
        {
          "internalType": "uint256",
          "name": "love",
          "type": "uint256"
        },
        {
          "internalType": "uint256",
          "name": "rarity",
          "type": "uint256"
        },
        {
          "internalType": "uint256",
          "name": "popularity",
          "type": "uint256"
        },
        {
          "internalType": "uint64",
          "name": "energy",
          "type": "uint64"
        },
        {
          "internalType": "uint64",
          "name": "information",
          "type": "uint64"
        },
        {
          "internalType": "uint64",
          "name": "decision",
          "type": "uint64"
        },
        {
          "internalType": "uint64",
          "name": "relate",
          "type": "uint64"
        },
        {
          "internalType": "uint256",
          "name": "sp",
          "type": "uint256"
        }
      ],
      "stateMutability": "view",
      "type": "function"
    },
    {
      "inputs": [
        {
          "internalType": "address",
          "name": "account",
          "type": "address"
        },
        {
          "internalType": "uint256",
          "name": "tokenId",
          "type": "uint256"
        },
        {
          "internalType": "uint256",
          "name": "amount",
          "type": "uint256"
        },
        {
          "internalType": "uint256",
          "name": "love",
          "type": "uint256"
        },
        {
          "internalType": "uint256",
          "name": "rarity",
          "type": "uint256"
        },
        {
          "internalType": "uint256",
          "name": "popularity",
          "type": "uint256"
        },
        {
          "internalType": "uint64",
          "name": "energy",
          "type": "uint64"
        },
        {
          "internalType": "uint64",
          "name": "information",
          "type": "uint64"
        },
        {
          "internalType": "uint64",
          "name": "decision",
          "type": "uint64"
        },
        {
          "internalType": "uint64",
          "name": "relate",
          "type": "uint64"
        },
        {
          "internalType": "uint256",
          "name": "sp",
          "type": "uint256"
        }
      ],
      "name": "_setProperties",
      "outputs": [],
      "stateMutability": "nonpayable",
      "type": "function"
    }
  ],
  "bytecode": "0x60806040523480156200001157600080fd5b50604080518082018252600f81526e4368696e6747752d50726f66696c6560881b60208083019182528351808501909452600384526204347560ec1b9084015281519192916200006491600091620000f3565b5080516200007a906001906020840190620000f3565b50505062000097620000916200009d60201b60201c565b620000a1565b620001d6565b3390565b600780546001600160a01b038381166001600160a01b0319831681179093556040519116919082907f8be0079c531659141344cd1fd0a4f28419497f9722a3daafe3b4186f6b6457e090600090a35050565b828054620001019062000199565b90600052602060002090601f01602090048101928262000125576000855562000170565b82601f106200014057805160ff191683800117855562000170565b8280016001018555821562000170579182015b828111156200017057825182559160200191906001019062000153565b506200017e92915062000182565b5090565b5b808211156200017e576000815560010162000183565b600181811c90821680620001ae57607f821691505b60208210811415620001d057634e487b7160e01b600052602260045260246000fd5b50919050565b61259680620001e66000396000f3fe608060405234801561001057600080fd5b506004361061014d5760003560e01c806370a08231116100c3578063a55d918c1161007c578063a55d918c146103e5578063b88d4fde14610509578063c87b56dd1461051c578063cfbcf4f51461052f578063e985e9c514610542578063f2fde38b1461057e57600080fd5b806370a082311461037d578063715018a61461039e5780638da5cb5b146103a657806395d89b41146103b7578063a0712d68146103bf578063a22cb465146103d257600080fd5b8063162094c411610115578063162094c4146102fe57806318eb3e361461031157806323b872dd14610324578063269224011461033757806342842e0e146103575780636352211e1461036a57600080fd5b806301ffc9a71461015257806306fdde031461017a578063081812fc1461018f578063095ea7b3146101ba57806314bfcdd7146101cf575b600080fd5b610165610160366004611e24565b610591565b60405190151581526020015b60405180910390f35b6101826105e3565b6040516101719190611e99565b6101a261019d366004611eac565b610675565b6040516001600160a01b039091168152602001610171565b6101cd6101c8366004611edc565b610702565b005b6102ac6101dd366004611edc565b6001600160a01b039091166000908152600a6020908152604080832093835292815290829020825160c081018452815481526001820154818401908152600283015482860190815260038401546060808501918252875160808181018a5260048801546001600160401b038082168452600160401b820481169a84019a8b52600160801b820481169b84019b8c52600160c01b90910416928201928352860181905260059096015460a08601819052945193519251915195519651975190519398929791969491939092909190565b60408051998a5260208a01989098529688019590955260608701939093526001600160401b039182166080870152811660a086015290811660c08501521660e083015261010082015261012001610171565b6101cd61030c366004611f91565b610818565b61018261031f366004612002565b610826565b6101cd610332366004612056565b6109b2565b61034a610345366004612092565b6109e3565b60405161017191906120ad565b6101cd610365366004612056565b610a4f565b6101a2610378366004611eac565b610a6a565b61039061038b366004612092565b610ae1565b604051908152602001610171565b6101cd610b68565b6007546001600160a01b03166101a2565b610182610bce565b6101cd6103cd366004611eac565b610bdd565b6101cd6103e03660046120f1565b610ef7565b6101cd6103f336600461212d565b6040805160c081018252998a526020808b01998a528a82019889526060808c019889528251608081810185526001600160401b03998a168252978916818401529588168684015293871685850152948a0193845260a08a019182526001600160a01b03909b166000908152600a85528b81209a8152998452988a90209751885595516001880155935160028701559151600386015591518051600486018054938301519883015192909501518416600160c01b026001600160c01b03928516600160801b02929092166fffffffffffffffffffffffffffffffff988516600160401b026fffffffffffffffffffffffffffffffff1990941691909416179190911795909516179390931790925551600590910155565b6101cd6105173660046121cf565b610f02565b61018261052a366004611eac565b610f3a565b61018261053d366004611eac565b6110a9565b61016561055036600461224a565b6001600160a01b03918216600090815260056020908152604080832093909416825291909152205460ff1690565b6101cd61058c366004612092565b611205565b60006001600160e01b031982166380ac58cd60e01b14806105c257506001600160e01b03198216635b5e139f60e01b145b806105dd57506301ffc9a760e01b6001600160e01b03198316145b92915050565b6060600080546105f29061227d565b80601f016020809104026020016040519081016040528092919081815260200182805461061e9061227d565b801561066b5780601f106106405761010080835404028352916020019161066b565b820191906000526020600020905b81548152906001019060200180831161064e57829003601f168201915b5050505050905090565b6000610680826112d0565b6106e65760405162461bcd60e51b815260206004820152602c60248201527f4552433732313a20617070726f76656420717565727920666f72206e6f6e657860448201526b34b9ba32b73a103a37b5b2b760a11b60648201526084015b60405180910390fd5b506000908152600460205260409020546001600160a01b031690565b600061070d82610a6a565b9050806001600160a01b0316836001600160a01b0316141561077b5760405162461bcd60e51b815260206004820152602160248201527f4552433732313a20617070726f76616c20746f2063757272656e74206f776e656044820152603960f91b60648201526084016106dd565b336001600160a01b038216148061079757506107978133610550565b6108095760405162461bcd60e51b815260206004820152603860248201527f4552433732313a20617070726f76652063616c6c6572206973206e6f74206f7760448201527f6e6572206e6f7220617070726f76656420666f7220616c6c000000000000000060648201526084016106dd565b61081383836112ed565b505050565b610822828261135b565b5050565b6060610830611d30565b6032866001600160401b03161115610861576040805180820190915260018152604960f81b6020820152815261087c565b6040805180820190915260018152604560f81b602082015281525b6032856001600160401b031611156108b357604080518082019091526001808252602760f91b6020830152829060200201526108d4565b604080518082019091526001808252605360f81b6020830152829060200201525b6032846001600160401b031611156109065760408051808201825260018152602360f91b602082015290820152610922565b60408051808201825260018152601560fa1b6020820152908201525b6032836001600160401b03161115610956576040805180820190915260018152600560fc1b60208201526060820152610974565b6040805180820190915260018152602560f91b602082015260608201525b8051602080830151604080850151606086015191516109979594919291016122c8565b6040516020818303038152906040529150505b949350505050565b6109bc33826113e6565b6109d85760405162461bcd60e51b81526004016106dd9061231f565b6108138383836114cc565b6001600160a01b038116600090815260086020908152604091829020805483518184028101840190945280845260609392830182828015610a4357602002820191906000526020600020905b815481526020019060010190808311610a2f575b50505050509050919050565b61081383838360405180602001604052806000815250610f02565b6000818152600260205260408120546001600160a01b0316806105dd5760405162461bcd60e51b815260206004820152602960248201527f4552433732313a206f776e657220717565727920666f72206e6f6e657869737460448201526832b73a103a37b5b2b760b91b60648201526084016106dd565b60006001600160a01b038216610b4c5760405162461bcd60e51b815260206004820152602a60248201527f4552433732313a2062616c616e636520717565727920666f7220746865207a65604482015269726f206164647265737360b01b60648201526084016106dd565b506001600160a01b031660009081526003602052604090205490565b6007546001600160a01b03163314610bc25760405162461bcd60e51b815260206004820181905260248201527f4f776e61626c653a2063616c6c6572206973206e6f7420746865206f776e657260448201526064016106dd565b610bcc6000611668565b565b6060600180546105f29061227d565b6009805460009182610bee83612386565b90915550905033610bff81836116ba565b6001600160a01b0381166000818152600860209081526040808320805460018101825590845282842001869055928252600a8152828220858352905290812090610c4f610c4a6117ed565b61182b565b6001600160401b038116600284018190556040805187815260208101929092529192507ff7beca12aff38a778c2c744bdd034145e5c3fd0af3eb2594875d9229905b74af910160405180910390a18460101415610ccf57610cb16005826123a1565b610cbc9060046123a1565b6001600160401b03166005830155610ef0565b6000610cda866118a6565b805190915015610d2257610cef6005836123a1565b610cfa9060646123d0565b60048401805467ffffffffffffffff19166001600160401b0392909216919091179055610d51565b610d2d6005836123a1565b60048401805467ffffffffffffffff19166001600160401b03929092169190911790555b602081015115610da457610d666005836123a1565b610d719060646123d0565b6004840180546001600160401b0392909216600160401b0267ffffffffffffffff60401b19909216919091179055610dde565b610daf6005836123a1565b6004840180546001600160401b0392909216600160401b0267ffffffffffffffff60401b199092169190911790555b604081015115610e3157610df36005836123a1565b610dfe9060646123d0565b6004840180546001600160401b0392909216600160801b0267ffffffffffffffff60801b19909216919091179055610e6b565b610e3c6005836123a1565b6004840180546001600160401b0392909216600160801b0267ffffffffffffffff60801b199092169190911790555b606081015115610eb957610e806005836123a1565b610e8b9060646123d0565b6004840180546001600160401b0392909216600160c01b026001600160c01b03909216919091179055610eee565b610ec46005836123a1565b6004840180546001600160401b0392909216600160c01b026001600160c01b039092169190911790555b505b5050505050565b61082233838361195e565b610f0c33836113e6565b610f285760405162461bcd60e51b81526004016106dd9061231f565b610f3484848484611a2d565b50505050565b6060610f45826112d0565b610fab5760405162461bcd60e51b815260206004820152603160248201527f45524337323155524953746f726167653a2055524920717565727920666f72206044820152703737b732bc34b9ba32b73a103a37b5b2b760791b60648201526084016106dd565b60008281526006602052604081208054610fc49061227d565b80601f0160208091040260200160405190810160405280929190818152602001828054610ff09061227d565b801561103d5780601f106110125761010080835404028352916020019161103d565b820191906000526020600020905b81548152906001019060200180831161102057829003601f168201915b50505050509050600061105b60408051602081019091526000815290565b905080516000141561106e575092915050565b8151156110a05780826040516020016110889291906123f8565b60405160208183030381529060405292505050919050565b6109aa84611a60565b60606110b3611d30565b60006110be846118a6565b8051909150156110e7576040805180820190915260018152604960f81b60208201528252611102565b6040805180820190915260018152604560f81b602082015282525b60208101511561113157604080518082019091526001808252602760f91b602083015283906020020152611152565b604080518082019091526001808252605360f81b6020830152839060200201525b60408101511561117c5760408051808201825260018152602360f91b602082015290830152611198565b60408051808201825260018152601560fa1b6020820152908301525b6060810151156111c4576040805180820190915260018152600560fc1b602082015260608301526111e2565b6040805180820190915260018152602560f91b602082015260608301525b8151602080840151604080860151606087015191516110889594919291016122c8565b6007546001600160a01b0316331461125f5760405162461bcd60e51b815260206004820181905260248201527f4f776e61626c653a2063616c6c6572206973206e6f7420746865206f776e657260448201526064016106dd565b6001600160a01b0381166112c45760405162461bcd60e51b815260206004820152602660248201527f4f776e61626c653a206e6577206f776e657220697320746865207a65726f206160448201526564647265737360d01b60648201526084016106dd565b6112cd81611668565b50565b6000908152600260205260409020546001600160a01b0316151590565b600081815260046020526040902080546001600160a01b0319166001600160a01b038416908117909155819061132282610a6a565b6001600160a01b03167f8c5be1e5ebec7d5bd14f71427d1e84f3dd0314c0f7b2291e5b200ac8c7c3b92560405160405180910390a45050565b611364826112d0565b6113c75760405162461bcd60e51b815260206004820152602e60248201527f45524337323155524953746f726167653a2055524920736574206f66206e6f6e60448201526d32bc34b9ba32b73a103a37b5b2b760911b60648201526084016106dd565b6000828152600660209081526040909120825161081392840190611d57565b60006113f1826112d0565b6114525760405162461bcd60e51b815260206004820152602c60248201527f4552433732313a206f70657261746f7220717565727920666f72206e6f6e657860448201526b34b9ba32b73a103a37b5b2b760a11b60648201526084016106dd565b600061145d83610a6a565b9050806001600160a01b0316846001600160a01b031614806114985750836001600160a01b031661148d84610675565b6001600160a01b0316145b806109aa57506001600160a01b0380821660009081526005602090815260408083209388168352929052205460ff166109aa565b826001600160a01b03166114df82610a6a565b6001600160a01b0316146115435760405162461bcd60e51b815260206004820152602560248201527f4552433732313a207472616e736665722066726f6d20696e636f72726563742060448201526437bbb732b960d91b60648201526084016106dd565b6001600160a01b0382166115a55760405162461bcd60e51b8152602060048201526024808201527f4552433732313a207472616e7366657220746f20746865207a65726f206164646044820152637265737360e01b60648201526084016106dd565b6115b06000826112ed565b6001600160a01b03831660009081526003602052604081208054600192906115d9908490612427565b90915550506001600160a01b038216600090815260036020526040812080546001929061160790849061243e565b909155505060008181526002602052604080822080546001600160a01b0319166001600160a01b0386811691821790925591518493918716917fddf252ad1be2c89b69c2b068fc378daa952ba7f163c4a11628f55a4df523b3ef91a4505050565b600780546001600160a01b038381166001600160a01b0319831681179093556040519116919082907f8be0079c531659141344cd1fd0a4f28419497f9722a3daafe3b4186f6b6457e090600090a35050565b6001600160a01b0382166117105760405162461bcd60e51b815260206004820181905260248201527f4552433732313a206d696e7420746f20746865207a65726f206164647265737360448201526064016106dd565b611719816112d0565b156117665760405162461bcd60e51b815260206004820152601c60248201527f4552433732313a20746f6b656e20616c7265616479206d696e7465640000000060448201526064016106dd565b6001600160a01b038216600090815260036020526040812080546001929061178f90849061243e565b909155505060008181526002602052604080822080546001600160a01b0319166001600160a01b03861690811790915590518392907fddf252ad1be2c89b69c2b068fc378daa952ba7f163c4a11628f55a4df523b3ef908290a45050565b60004260001b600b5460405160200161180891815260200190565b60408051601f19818403018152919052805160209091012017600b819055919050565b6000601461183a60648461246c565b101561184857506005919050565b602861185560648461246c565b101561186357506004919050565b603c61187060648461246c565b101561187e57506003919050565b605061188b60648461246c565b101561189957506002919050565b506001919050565b919050565b6118ae611ddb565b601082106118fe5760405162461bcd60e51b815260206004820152601960248201527f4368696e6747753a204558434545445f424f554e444152592e0000000000000060448201526064016106dd565b60005b82156119585761191260028461246c565b600114611920576000611923565b60015b828261192e81612480565b935060ff1660048110611943576119436122b2565b91151560209092020152600283049250611901565b50919050565b816001600160a01b0316836001600160a01b031614156119c05760405162461bcd60e51b815260206004820152601960248201527f4552433732313a20617070726f766520746f2063616c6c65720000000000000060448201526064016106dd565b6001600160a01b03838116600081815260056020908152604080832094871680845294825291829020805460ff191686151590811790915591519182527f17307eab39ab6107e8899845ad3d59bd9653f200f220920489ca2b5937696c31910160405180910390a3505050565b611a388484846114cc565b611a4484848484611b38565b610f345760405162461bcd60e51b81526004016106dd906124a0565b6060611a6b826112d0565b611acf5760405162461bcd60e51b815260206004820152602f60248201527f4552433732314d657461646174613a2055524920717565727920666f72206e6f60448201526e3732bc34b9ba32b73a103a37b5b2b760891b60648201526084016106dd565b6000611ae660408051602081019091526000815290565b90506000815111611b065760405180602001604052806000815250611b31565b80611b1084611c33565b604051602001611b219291906123f8565b6040516020818303038152906040525b9392505050565b60006001600160a01b0384163b15611c2b57604051630a85bd0160e11b81526001600160a01b0385169063150b7a0290611b7c9033908990889088906004016124f2565b6020604051808303816000875af1925050508015611bb7575060408051601f3d908101601f19168201909252611bb49181019061252f565b60015b611c11573d808015611be5576040519150601f19603f3d011682016040523d82523d6000602084013e611bea565b606091505b508051611c095760405162461bcd60e51b81526004016106dd906124a0565b805181602001fd5b6001600160e01b031916630a85bd0160e11b1490506109aa565b5060016109aa565b606081611c575750506040805180820190915260018152600360fc1b602082015290565b8160005b8115611c815780611c6b81612386565b9150611c7a9050600a8361254c565b9150611c5b565b6000816001600160401b03811115611c9b57611c9b611f06565b6040519080825280601f01601f191660200182016040528015611cc5576020820181803683370190505b5090505b84156109aa57611cda600183612427565b9150611ce7600a8661246c565b611cf290603061243e565b60f81b818381518110611d0757611d076122b2565b60200101906001600160f81b031916908160001a905350611d29600a8661254c565b9450611cc9565b60405180608001604052806004905b6060815260200190600190039081611d3f5790505090565b828054611d639061227d565b90600052602060002090601f016020900481019282611d855760008555611dcb565b82601f10611d9e57805160ff1916838001178555611dcb565b82800160010185558215611dcb579182015b82811115611dcb578251825591602001919060010190611db0565b50611dd7929150611df9565b5090565b60405180608001604052806004906020820280368337509192915050565b5b80821115611dd75760008155600101611dfa565b6001600160e01b0319811681146112cd57600080fd5b600060208284031215611e3657600080fd5b8135611b3181611e0e565b60005b83811015611e5c578181015183820152602001611e44565b83811115610f345750506000910152565b60008151808452611e85816020860160208601611e41565b601f01601f19169290920160200192915050565b602081526000611b316020830184611e6d565b600060208284031215611ebe57600080fd5b5035919050565b80356001600160a01b03811681146118a157600080fd5b60008060408385031215611eef57600080fd5b611ef883611ec5565b946020939093013593505050565b634e487b7160e01b600052604160045260246000fd5b60006001600160401b0380841115611f3657611f36611f06565b604051601f8501601f19908116603f01168101908282118183101715611f5e57611f5e611f06565b81604052809350858152868686011115611f7757600080fd5b858560208301376000602087830101525050509392505050565b60008060408385031215611fa457600080fd5b8235915060208301356001600160401b03811115611fc157600080fd5b8301601f81018513611fd257600080fd5b611fe185823560208401611f1c565b9150509250929050565b80356001600160401b03811681146118a157600080fd5b6000806000806080858703121561201857600080fd5b61202185611feb565b935061202f60208601611feb565b925061203d60408601611feb565b915061204b60608601611feb565b905092959194509250565b60008060006060848603121561206b57600080fd5b61207484611ec5565b925061208260208501611ec5565b9150604084013590509250925092565b6000602082840312156120a457600080fd5b611b3182611ec5565b6020808252825182820181905260009190848201906040850190845b818110156120e5578351835292840192918401916001016120c9565b50909695505050505050565b6000806040838503121561210457600080fd5b61210d83611ec5565b91506020830135801515811461212257600080fd5b809150509250929050565b60008060008060008060008060008060006101608c8e03121561214f57600080fd5b6121588c611ec5565b9a5060208c0135995060408c0135985060608c0135975060808c0135965060a08c0135955061218960c08d01611feb565b945061219760e08d01611feb565b93506121a66101008d01611feb565b92506121b56101208d01611feb565b91506101408c013590509295989b509295989b9093969950565b600080600080608085870312156121e557600080fd5b6121ee85611ec5565b93506121fc60208601611ec5565b92506040850135915060608501356001600160401b0381111561221e57600080fd5b8501601f8101871361222f57600080fd5b61223e87823560208401611f1c565b91505092959194509250565b6000806040838503121561225d57600080fd5b61226683611ec5565b915061227460208401611ec5565b90509250929050565b600181811c9082168061229157607f821691505b6020821081141561195857634e487b7160e01b600052602260045260246000fd5b634e487b7160e01b600052603260045260246000fd5b600085516122da818460208a01611e41565b8551908301906122ee818360208a01611e41565b8551910190612301818360208901611e41565b8451910190612314818360208801611e41565b019695505050505050565b60208082526031908201527f4552433732313a207472616e736665722063616c6c6572206973206e6f74206f6040820152701ddb995c881b9bdc88185c1c1c9bdd9959607a1b606082015260800190565b634e487b7160e01b600052601160045260246000fd5b600060001982141561239a5761239a612370565b5060010190565b60006001600160401b03808316818516818304811182151516156123c7576123c7612370565b02949350505050565b60006001600160401b03838116908316818110156123f0576123f0612370565b039392505050565b6000835161240a818460208801611e41565b83519083019061241e818360208801611e41565b01949350505050565b60008282101561243957612439612370565b500390565b6000821982111561245157612451612370565b500190565b634e487b7160e01b600052601260045260246000fd5b60008261247b5761247b612456565b500690565b600060ff821660ff81141561249757612497612370565b60010192915050565b60208082526032908201527f4552433732313a207472616e7366657220746f206e6f6e20455243373231526560408201527131b2b4bb32b91034b6b83632b6b2b73a32b960711b606082015260800190565b6001600160a01b038581168252841660208201526040810183905260806060820181905260009061252590830184611e6d565b9695505050505050565b60006020828403121561254157600080fd5b8151611b3181611e0e565b60008261255b5761255b612456565b50049056fea2646970667358221220a9f29b53b2a50b4e4144b656fca7f235f289343471cd8599c3857efee3be21a064736f6c634300080b0033",
  "immutableReferences": {},
  "source": "// SPDX-License-Identifier: MIT\n\npragma solidity ^0.8.0;\n\nimport \"@openzeppelin/contracts/token/ERC721/extensions/ERC721URIStorage.sol\";\nimport \"@openzeppelin/contracts/access/Ownable.sol\";\n\ncontract ChingGu is ERC721URIStorage, Ownable {\n    /* Events */\n    event Rare(uint256 tokenId, uint256 degree);\n\n    mapping (address => uint256[]) internal _collectables;\n    uint256 tokenIdCounter;\n\n    /* Storage: Properties */\n    struct MBTI {\n        uint64 energy; // E <=> I, save 'E'\n        uint64 information; // S <=> N, save 'S'\n        uint64 decision; // T <=> F, save 'T'\n        uint64 relate; // J <=> P, save 'J'\n    }\n    struct Properties {\n        uint256 amount; // of training data\n        uint256 love;\n        uint256 rarity;\n        uint256 popularity;\n        MBTI mbti;\n        uint256 sp; // skill point\n    }\n    // key: [account][tokenId]\n    mapping(address => mapping(uint256 => Properties)) internal _properties;\n\n    uint64 private constant SP_PER_RARITY = 5;\n\n    constructor() ERC721(\"ChingGu-Profile\", \"CGP\") {}\n\n    /* Functions: Metadata */\n\n    function mint(uint256 job) public {\n        uint256 tokenId = tokenIdCounter++;\n        address sender = _msgSender();\n\n        _mint(sender, tokenId);\n        _collectables[sender].push(tokenId);\n\n        Properties storage p = _properties[sender][tokenId];\n\n        // Rarity\n        uint64 rarity = _rarity(_random());\n        p.rarity = rarity; \n        emit Rare(tokenId, rarity);\n\n        if (job == 16) { // Neutral\n            p.sp = rarity * SP_PER_RARITY * 4;\n        }\n        else {\n            bool[4] memory b = _binary(job);\n            if (b[0]) { p.mbti.energy = 100 - rarity * SP_PER_RARITY; }\n            else { p.mbti.energy = rarity * SP_PER_RARITY; }\n            if (b[1]) { p.mbti.information = 100 - rarity * SP_PER_RARITY; }\n            else { p.mbti.information = rarity * SP_PER_RARITY; }\n            if (b[2]) { p.mbti.decision = 100 - rarity * SP_PER_RARITY; }\n            else { p.mbti.decision = rarity * SP_PER_RARITY; }\n            if (b[3]) { p.mbti.relate = 100 - rarity * SP_PER_RARITY; }\n            else { p.mbti.relate = rarity * SP_PER_RARITY; }\n        }\n    }\n\n    /**\n     * TODO: Real random.\n     */\n    uint256 internal _seed;\n    function _random() internal returns(uint256) {\n        _seed = uint256(keccak256(abi.encode(_seed)) | bytes32(block.timestamp));\n        return _seed;\n    }\n\n    // mbti\n    /*\n        0:  0, 0, 0, 0: ISFP\n        1:  1, 0, 0, 0: ESFP\n        2:  0, 1, 0, 0: INFP\n        3:  1, 1, 0, 0: ENFP\n        4:  0, 0, 1, 0: ISTP\n        5:  1, 0, 1, 0: ESTP\n        6:  0, 1, 1, 0: INTP\n        7:  1, 1, 1, 0: ENTP\n        8:  0, 0, 0, 1: ISFJ\n        9:  1, 0, 0, 1: ESFJ\n        10: 0, 1, 0, 1: INFJ\n        11: 1, 1, 0, 1: ENFJ\n        12: 0, 0, 1, 1: ISTJ\n        13: 1, 0, 1, 1: ESTJ\n        14: 0, 1, 1, 1: INTJ\n        15: 1, 1, 1, 1: ENTJ\n    */\n    function _binary(uint256 x) internal pure returns(bool[4] memory y) {\n        require(x < 16, \"ChingGu: EXCEED_BOUNDARY.\");\n        require(x >= 0, \"ChingGu: EXCEED_BOUNDARY.\");\n\n        uint8 index;\n        while(x > 0) {\n            y[index++] = x % 2 == 1 ? true : false;\n            unchecked { x /= 2; }\n        }\n    }\n    function _rarity(uint256 r) internal pure returns(uint64 y) {\n        // for test purpose\n        if (r % 100 < 20) { return 5; }\n        else if(r % 100 < 40) { return 4; }\n        else if(r % 100 < 60) { return 3; }\n        else if(r % 100 < 80) { return 2; }\n        else { return 1; }\n\n        // if (r % 100 < 1) { return 5; } // legendary (1%)\n        // else if(r % 100 < 7) { return 4; } // unique (6%)\n        // else if(r % 100 < 25) { return 3; } // epic (18%)\n        // else if(r % 100 < 50) { return 2; } // rare (25%)\n        // else { return 1; } // normal (50%)\n    }\n\n    /* View & Pure Functions */\n    function collectables(address account) public view returns(uint256[] memory) {\n        return _collectables[account];\n    }\n    function getMBTI(\n        uint64 energy, // E <=> I, save 'E'\n        uint64 information, // S <=> N, save 'S'\n        uint64 decision, // T <=> F, save 'T'\n        uint64 relate // J <=> P, save 'J'\n    ) public pure returns(string memory) {\n        bytes[4] memory mbti;\n        if (energy > 50) { mbti[0] = 'I'; }\n        else { mbti[0] = 'E'; }\n        if (information > 50) { mbti[1] = 'N'; }\n        else { mbti[1] = 'S'; }\n        if (decision > 50) { mbti[2] = 'F'; }\n        else { mbti[2] = 'T'; }\n        if (relate > 50) { mbti[3] = 'P'; }\n        else { mbti[3] = 'J'; }\n        return string(abi.encodePacked(mbti[0], mbti[1], mbti[2], mbti[3]));\n    }\n    function getMBTI(uint256 job) public pure returns(string memory) {\n        bytes[4] memory mbti;\n        bool[4] memory b = _binary(job);\n        if (b[0]) { mbti[0] = 'I'; }\n        else { mbti[0] = 'E'; }\n        if (b[1]) { mbti[1] = 'N'; }\n        else { mbti[1] = 'S'; }\n        if (b[2]) { mbti[2] = 'F'; }\n        else { mbti[2] = 'T'; }\n        if (b[3]) { mbti[3] = 'P'; }\n        else { mbti[3] = 'J'; }\n        return string(abi.encodePacked(mbti[0], mbti[1], mbti[2], mbti[3]));\n    }\n\n    // /**\n    //  * TODO:\n    //  *\n    //  * - Ownable.\n    //  */\n    // function mint(address to, uint256 tokenId) public /* onlyOwner */ {\n    //     _mint(to, tokenId);\n    // }\n\n    /**\n     * @dev Base URI for computing {tokenURI}. If set, the resulting URI for each\n     * token will be the concatenation of the `baseURI` and the `tokenId`. Empty\n     * by default, can be overriden in child contracts.\n     *\n     * TODO:\n     *\n     * - Set baseURI.\n     */\n    function _baseURI() internal view virtual override returns (string memory) {\n        return \"\";\n    }\n\n    /**\n     * @dev Sets `_tokenURI` as the tokenURI of `tokenId`.\n     *\n     * Requirements:\n     *\n     * - `tokenId` must exist.\n     *\n     * TODO:\n     *\n     * - Ownable.\n     */\n    function setTokenURI(uint256 tokenId, string memory _tokenURI) public virtual {\n        _setTokenURI(tokenId, _tokenURI);\n    }\n\n    /* Functions: Properties */\n\n    function properties(\n        address account, uint256 tokenId\n    ) public view returns(\n        uint256 amount,\n        uint256 love, uint256 rarity, uint256 popularity,\n        uint64 energy, uint64 information, uint64 decision, uint64 relate,\n        uint256 sp\n    ) {\n        Properties memory p = _properties[account][tokenId];\n\n        amount = p.amount;\n        love = p.love;\n        rarity = p.rarity;\n        popularity = p.popularity;\n        energy = p.mbti.energy;\n        information = p.mbti.information;\n        decision = p.mbti.decision;\n        relate = p.mbti.relate;\n        sp = p.sp;\n    }\n\n    /**\n     * TODO: internal.\n     */\n    function _setProperties(\n        address account, uint256 tokenId,\n        uint256 amount,\n        uint256 love, uint256 rarity, uint256 popularity,\n        uint64 energy, uint64 information, uint64 decision, uint64 relate,\n        uint256 sp\n    ) public {\n        _properties[account][tokenId] = Properties({\n            amount: amount,\n            love: love, rarity: rarity, popularity: popularity,\n            mbti: MBTI({energy: energy, information: information, decision: decision, relate: relate}),\n            sp: sp\n        });\n    }\n}\n",
  "sourcePath": "/home/lukepark/kakaobrain/mbtinft-contracts/contracts/ChingGu_ERC721.sol",
  "compiler": {
    "name": "solc",
    "version": "0.8.11+commit.d7f03943.Emscripten.clang"
  },
  "schemaVersion": "3.4.5",
  "updatedAt": "2022-02-25T04:48:33.048Z",
  "devdoc": {
    "kind": "dev",
    "methods": {
      "approve(address,uint256)": {
        "details": "See {IERC721-approve}."
      },
      "balanceOf(address)": {
        "details": "See {IERC721-balanceOf}."
      },
      "getApproved(uint256)": {
        "details": "See {IERC721-getApproved}."
      },
      "isApprovedForAll(address,address)": {
        "details": "See {IERC721-isApprovedForAll}."
      },
      "name()": {
        "details": "See {IERC721Metadata-name}."
      },
      "owner()": {
        "details": "Returns the address of the current owner."
      },
      "ownerOf(uint256)": {
        "details": "See {IERC721-ownerOf}."
      },
      "renounceOwnership()": {
        "details": "Leaves the contract without owner. It will not be possible to call `onlyOwner` functions anymore. Can only be called by the current owner. NOTE: Renouncing ownership will leave the contract without an owner, thereby removing any functionality that is only available to the owner."
      },
      "safeTransferFrom(address,address,uint256)": {
        "details": "See {IERC721-safeTransferFrom}."
      },
      "safeTransferFrom(address,address,uint256,bytes)": {
        "details": "See {IERC721-safeTransferFrom}."
      },
      "setApprovalForAll(address,bool)": {
        "details": "See {IERC721-setApprovalForAll}."
      },
      "setTokenURI(uint256,string)": {
        "details": "Sets `_tokenURI` as the tokenURI of `tokenId`. Requirements: - `tokenId` must exist. TODO: - Ownable."
      },
      "supportsInterface(bytes4)": {
        "details": "See {IERC165-supportsInterface}."
      },
      "symbol()": {
        "details": "See {IERC721Metadata-symbol}."
      },
      "tokenURI(uint256)": {
        "details": "See {IERC721Metadata-tokenURI}."
      },
      "transferFrom(address,address,uint256)": {
        "details": "See {IERC721-transferFrom}."
      },
      "transferOwnership(address)": {
        "details": "Transfers ownership of the contract to a new account (`newOwner`). Can only be called by the current owner."
      }
    },
    "version": 1
  },
  "userdoc": {
    "kind": "user",
    "methods": {
      "_setProperties(address,uint256,uint256,uint256,uint256,uint256,uint64,uint64,uint64,uint64,uint256)": {
        "notice": "TODO: internal."
      }
    },
    "version": 1
  }
}