{
  "contractName": "MbtiNft",
  "abi": [
    {
      "inputs": [
        {
          "internalType": "address",
          "name": "cgv_",
          "type": "address"
        },
        {
          "internalType": "address",
          "name": "chinggu_",
          "type": "address"
        }
      ],
      "stateMutability": "nonpayable",
      "type": "constructor"
    },
    {
      "anonymous": false,
      "inputs": [
        {
          "indexed": true,
          "internalType": "address",
          "name": "previousOwner",
          "type": "address"
        },
        {
          "indexed": true,
          "internalType": "address",
          "name": "newOwner",
          "type": "address"
        }
      ],
      "name": "OwnershipTransferred",
      "type": "event"
    },
    {
      "inputs": [
        {
          "internalType": "int128",
          "name": "",
          "type": "int128"
        }
      ],
      "name": "accounts",
      "outputs": [
        {
          "internalType": "address",
          "name": "",
          "type": "address"
        }
      ],
      "stateMutability": "view",
      "type": "function"
    },
    {
      "inputs": [],
      "name": "cgv",
      "outputs": [
        {
          "internalType": "contract IERC20",
          "name": "",
          "type": "address"
        }
      ],
      "stateMutability": "view",
      "type": "function"
    },
    {
      "inputs": [],
      "name": "chinggu",
      "outputs": [
        {
          "internalType": "contract IERC721",
          "name": "",
          "type": "address"
        }
      ],
      "stateMutability": "view",
      "type": "function"
    },
    {
      "inputs": [
        {
          "internalType": "int128",
          "name": "",
          "type": "int128"
        }
      ],
      "name": "keys",
      "outputs": [
        {
          "internalType": "bytes32",
          "name": "",
          "type": "bytes32"
        }
      ],
      "stateMutability": "view",
      "type": "function"
    },
    {
      "inputs": [
        {
          "internalType": "bytes32",
          "name": "",
          "type": "bytes32"
        }
      ],
      "name": "lockedTokens",
      "outputs": [
        {
          "internalType": "uint256",
          "name": "",
          "type": "uint256"
        }
      ],
      "stateMutability": "view",
      "type": "function"
    },
    {
      "inputs": [
        {
          "internalType": "address",
          "name": "",
          "type": "address"
        },
        {
          "internalType": "uint256",
          "name": "",
          "type": "uint256"
        }
      ],
      "name": "nonces",
      "outputs": [
        {
          "internalType": "uint256",
          "name": "",
          "type": "uint256"
        }
      ],
      "stateMutability": "view",
      "type": "function"
    },
    {
      "inputs": [],
      "name": "owner",
      "outputs": [
        {
          "internalType": "address",
          "name": "",
          "type": "address"
        }
      ],
      "stateMutability": "view",
      "type": "function"
    },
    {
      "inputs": [
        {
          "internalType": "bytes32",
          "name": "",
          "type": "bytes32"
        }
      ],
      "name": "pending",
      "outputs": [
        {
          "internalType": "bool",
          "name": "",
          "type": "bool"
        }
      ],
      "stateMutability": "view",
      "type": "function"
    },
    {
      "inputs": [
        {
          "internalType": "address",
          "name": "",
          "type": "address"
        }
      ],
      "name": "permit_nonces",
      "outputs": [
        {
          "internalType": "uint256",
          "name": "",
          "type": "uint256"
        }
      ],
      "stateMutability": "view",
      "type": "function"
    },
    {
      "inputs": [],
      "name": "queue",
      "outputs": [
        {
          "internalType": "int128",
          "name": "idCount",
          "type": "int128"
        }
      ],
      "stateMutability": "view",
      "type": "function"
    },
    {
      "inputs": [],
      "name": "renounceOwnership",
      "outputs": [],
      "stateMutability": "nonpayable",
      "type": "function"
    },
    {
      "inputs": [
        {
          "internalType": "address",
          "name": "newOwner",
          "type": "address"
        }
      ],
      "name": "transferOwnership",
      "outputs": [],
      "stateMutability": "nonpayable",
      "type": "function"
    },
    {
      "inputs": [],
      "name": "getMax",
      "outputs": [
        {
          "internalType": "int128",
          "name": "",
          "type": "int128"
        },
        {
          "internalType": "int128",
          "name": "",
          "type": "int128"
        }
      ],
      "stateMutability": "view",
      "type": "function"
    },
    {
      "inputs": [
        {
          "internalType": "int128",
          "name": "id",
          "type": "int128"
        }
      ],
      "name": "getById",
      "outputs": [
        {
          "internalType": "int128",
          "name": "",
          "type": "int128"
        },
        {
          "internalType": "int128",
          "name": "",
          "type": "int128"
        }
      ],
      "stateMutability": "view",
      "type": "function"
    },
    {
      "inputs": [
        {
          "internalType": "uint256",
          "name": "i",
          "type": "uint256"
        }
      ],
      "name": "getByIndex",
      "outputs": [
        {
          "internalType": "int128",
          "name": "",
          "type": "int128"
        },
        {
          "internalType": "int128",
          "name": "",
          "type": "int128"
        }
      ],
      "stateMutability": "view",
      "type": "function"
    },
    {
      "inputs": [],
      "name": "size",
      "outputs": [
        {
          "internalType": "uint256",
          "name": "",
          "type": "uint256"
        }
      ],
      "stateMutability": "view",
      "type": "function"
    },
    {
      "inputs": [],
      "name": "idCount",
      "outputs": [
        {
          "internalType": "int128",
          "name": "",
          "type": "int128"
        }
      ],
      "stateMutability": "view",
      "type": "function"
    },
    {
      "inputs": [
        {
          "internalType": "int128",
          "name": "id",
          "type": "int128"
        }
      ],
      "name": "indices",
      "outputs": [
        {
          "internalType": "uint256",
          "name": "",
          "type": "uint256"
        }
      ],
      "stateMutability": "view",
      "type": "function"
    },
    {
      "inputs": [],
      "name": "allPriorities",
      "outputs": [
        {
          "internalType": "int128[]",
          "name": "ps",
          "type": "int128[]"
        },
        {
          "internalType": "int128",
          "name": "maxP",
          "type": "int128"
        },
        {
          "internalType": "int128",
          "name": "minP",
          "type": "int128"
        }
      ],
      "stateMutability": "view",
      "type": "function"
    },
    {
      "inputs": [],
      "name": "fastest",
      "outputs": [
        {
          "internalType": "int128",
          "name": "p",
          "type": "int128"
        }
      ],
      "stateMutability": "view",
      "type": "function"
    },
    {
      "inputs": [],
      "name": "faster",
      "outputs": [
        {
          "internalType": "int128",
          "name": "p",
          "type": "int128"
        }
      ],
      "stateMutability": "view",
      "type": "function"
    },
    {
      "inputs": [],
      "name": "average",
      "outputs": [
        {
          "internalType": "int128",
          "name": "p",
          "type": "int128"
        }
      ],
      "stateMutability": "view",
      "type": "function"
    },
    {
      "inputs": [],
      "name": "slower",
      "outputs": [
        {
          "internalType": "int128",
          "name": "p",
          "type": "int128"
        }
      ],
      "stateMutability": "view",
      "type": "function"
    },
    {
      "inputs": [],
      "name": "slowest",
      "outputs": [
        {
          "internalType": "int128",
          "name": "p",
          "type": "int128"
        }
      ],
      "stateMutability": "view",
      "type": "function"
    },
    {
      "inputs": [
        {
          "internalType": "address",
          "name": "account",
          "type": "address"
        },
        {
          "internalType": "uint256",
          "name": "tokenId",
          "type": "uint256"
        },
        {
          "internalType": "uint256",
          "name": "nonce",
          "type": "uint256"
        },
        {
          "internalType": "uint256",
          "name": "maxLength",
          "type": "uint256"
        },
        {
          "internalType": "uint256",
          "name": "inferencePrice",
          "type": "uint256"
        },
        {
          "internalType": "uint256",
          "name": "deadline",
          "type": "uint256"
        },
        {
          "internalType": "uint8",
          "name": "v",
          "type": "uint8"
        },
        {
          "internalType": "bytes32",
          "name": "r",
          "type": "bytes32"
        },
        {
          "internalType": "bytes32",
          "name": "s",
          "type": "bytes32"
        }
      ],
      "name": "permit",
      "outputs": [
        {
          "internalType": "int128",
          "name": "id",
          "type": "int128"
        }
      ],
      "stateMutability": "nonpayable",
      "type": "function"
    },
    {
      "inputs": [
        {
          "internalType": "bytes32",
          "name": "key",
          "type": "bytes32"
        },
        {
          "internalType": "uint256",
          "name": "tokenId",
          "type": "uint256"
        },
        {
          "internalType": "uint256",
          "name": "maxLength",
          "type": "uint256"
        },
        {
          "internalType": "uint256",
          "name": "inferencePrice",
          "type": "uint256"
        }
      ],
      "name": "upload",
      "outputs": [
        {
          "internalType": "int128",
          "name": "id",
          "type": "int128"
        }
      ],
      "stateMutability": "nonpayable",
      "type": "function"
    },
    {
      "inputs": [
        {
          "internalType": "address",
          "name": "account",
          "type": "address"
        },
        {
          "internalType": "uint256",
          "name": "tokenId",
          "type": "uint256"
        },
        {
          "internalType": "uint256",
          "name": "maxLength",
          "type": "uint256"
        },
        {
          "internalType": "uint256",
          "name": "inferencePrice",
          "type": "uint256"
        }
      ],
      "name": "upload",
      "outputs": [
        {
          "internalType": "int128",
          "name": "id",
          "type": "int128"
        }
      ],
      "stateMutability": "nonpayable",
      "type": "function"
    },
    {
      "inputs": [
        {
          "internalType": "int128",
          "name": "id",
          "type": "int128"
        }
      ],
      "name": "cancle",
      "outputs": [],
      "stateMutability": "nonpayable",
      "type": "function"
    },
    {
      "inputs": [],
      "name": "inference",
      "outputs": [],
      "stateMutability": "nonpayable",
      "type": "function"
    },
    {
      "inputs": [
        {
          "internalType": "address",
          "name": "account",
          "type": "address"
        },
        {
          "internalType": "uint256",
          "name": "tokenId",
          "type": "uint256"
        },
        {
          "internalType": "uint256",
          "name": "nonce",
          "type": "uint256"
        },
        {
          "internalType": "uint256",
          "name": "maxLength",
          "type": "uint256"
        },
        {
          "internalType": "uint256",
          "name": "inferencePrice",
          "type": "uint256"
        },
        {
          "internalType": "uint256",
          "name": "deadline",
          "type": "uint256"
        },
        {
          "internalType": "uint8",
          "name": "v",
          "type": "uint8"
        },
        {
          "internalType": "bytes32",
          "name": "r",
          "type": "bytes32"
        },
        {
          "internalType": "bytes32",
          "name": "s",
          "type": "bytes32"
        }
      ],
      "name": "inferenceWithPermit",
      "outputs": [],
      "stateMutability": "nonpayable",
      "type": "function"
    }
  ],
  "bytecode": "0x60806040523480156200001157600080fd5b506040516200203f3803806200203f833981016040819052620000349162000153565b6200003f3362000091565b600180546001600160a01b03199081166001600160a01b038581169190911790925560028054909116918316919091179055620000896003620000e1602090811b62000f2517901c565b50506200018b565b600080546001600160a01b038381166001600160a01b0319831681178455604051919092169283917f8be0079c531659141344cd1fd0a4f28419497f9722a3daafe3b4186f6b6457e09190a35050565b600181015462000133576040805180820190915260008082526020808301828152600180860180549182018155845291909220925191516001600160801b03908116600160801b029216919091179101555b50565b80516001600160a01b03811681146200014e57600080fd5b919050565b600080604083850312156200016757600080fd5b620001728362000136565b9150620001826020840162000136565b90509250929050565b611ea4806200019b6000396000f3fe608060405234801561001057600080fd5b50600436106101da5760003560e01c80637c4f7eb111610104578063cee47e6d116100a2578063e8d3358811610071578063e8d3358814610423578063ea0f63fd14610443578063f2fde38b14610463578063f6f7301e1461047657600080fd5b8063cee47e6d146103e3578063dd08e29a14610403578063e10d29ee1461040b578063e6e462381461041857600080fd5b8063949d225d116100de578063949d225d146103b85780639bbc8bc8146103c0578063a5ab6c05146103c8578063b250717a146103db57600080fd5b80637c4f7eb11461036b57806382c2b76c1461037e5780638da5cb5b146103a757600080fd5b80634756fa691161017c5780636e908f891161014b5780636e908f891461033e5780636f07a9c7146103485780636fa5d2ad1461035b578063715018a61461036357600080fd5b80634756fa69146102d6578063486c1c64146102ed578063502e1a16146103005780636c36eaf11461032b57600080fd5b80632d883a73116101b85780632d883a73146102735780633075f552146102a05780633dd34115146102a8578063444f8516146102c357600080fd5b806312a360c1146101df5780631808eeb81461020f57806326207bd114610242575b600080fd5b6002546101f2906001600160a01b031681565b6040516001600160a01b0390911681526020015b60405180910390f35b61023261021d3660046119fb565b60086020526000908152604090205460ff1681565b6040519015158152602001610206565b610265610250366004611a23565b600f0b60009081526005602052604090205490565b604051908152602001610206565b6102866102813660046119fb565b610489565b60408051600f93840b81529190920b602082015201610206565b6102866104ab565b6102b06104cc565b604051600f9190910b8152602001610206565b6001546101f2906001600160a01b031681565b6102de6104eb565b60405161020693929190611a40565b6102b06102fb366004611a9b565b61063b565b61026561030e366004611ae2565b600960209081526000928352604080842090915290825290205481565b6102b0610339366004611b0e565b61067f565b6103466108c9565b005b610346610356366004611a23565b610955565b6102b0610acb565b610346610ae5565b610346610379366004611b0e565b610b1b565b6101f261038c366004611a23565b6007602052600090815260409020546001600160a01b031681565b6000546001600160a01b03166101f2565b610265610cb4565b6102b0610cc5565b6102b06103d6366004611b91565b610cdf565b6102b0610e34565b6102656103f1366004611a23565b60066020526000908152604090205481565b6102b0610e65565b6003546102b090600f0b81565b600354600f0b6102b0565b6102656104313660046119fb565b600a6020526000908152604090205481565b610265610451366004611bcc565b600b6020526000908152604090205481565b610346610471366004611bcc565b610e7e565b610286610484366004611a23565b610f16565b60008080610498600385610f72565b8051602090910151909590945092505050565b60008060006104ba6003610ff9565b80516020909101519094909350915050565b60006104d66104eb565b5091508190506104e581611bff565b91505090565b606060008060006104fc6003611018565b90506001815161050c9190611c25565b67ffffffffffffffff81111561052457610524611c3c565b60405190808252806020026020018201604052801561054d578160200160208202803683370190505b50935060018151111561059d578060018151811061056d5761056d611c52565b60200260200101516020015192508060018151811061058e5761058e611c52565b60200260200101516020015191505b60015b81518110156106345760008282815181106105bd576105bd611c52565b602002602001015160200151905080866001846105da9190611c25565b815181106105ea576105ea611c52565b600f92830b602091820292909201015281810b9086900b121561060f57809450610621565b80600f0b84600f0b1315610621578093505b508061062c81611c68565b9150506105a0565b5050909192565b60006106498533858561108d565b336000908152600960209081526040808320888452909152812080549293509061067283611c68565b9190505550949350505050565b6000428510156106c95760405162461bcd60e51b815260206004820152601060248201526f135095125391950e881156141254915160821b60448201526064015b60405180910390fd5b604080516001600160a01b038c1660208201529081018a90526060810189905260009060800160408051601f1981840301815291815281516020928301206001600160a01b038e166000908152600b90935290822080549193507fb4739a75ec8852fc3f62bdfd066ffa398d94859237fb48c553b1be76005524939184918461075183611c68565b9091555060408051602081019490945283019190915260608201526080810188905260a00160408051601f198184030181529082905280516020918201207f19457468657265756d205369676e6564204d6573736167653a0a33320000000091830191909152603c820152605c0160408051601f198184030181528282528051602091820120600080855291840180845281905260ff8a169284019290925260608301889052608083018790529092509060019060a0016020604051602081039080840390855afa15801561082a573d6000803e3d6000fd5b5050604051601f1901519150506001600160a01b0381161580159061086057508c6001600160a01b0316816001600160a01b0316145b6108ac5760405162461bcd60e51b815260206004820152601a60248201527f4d4254494e46543a20494e56414c49445f5349474e415455524500000000000060448201526064016106c0565b6108b8838e8c8c61108d565b9d9c50505050505050505050505050565b6000546001600160a01b031633146108f35760405162461bcd60e51b81526004016106c090611c83565b60006108fd6111ab565b5060008181526008602052604090205490935060ff16915061093390505760405162461bcd60e51b81526004016106c090611cb8565b6000818152600860205260409020805460ff191690556109528161122f565b50565b600f81900b6000908152600760205260409020546001600160a01b03163381146109c15760405162461bcd60e51b815260206004820152601760248201527f4d4254494e46543a20494e56414c49445f53454e44455200000000000000000060448201526064016106c0565b600f82900b60009081526006602090815260408083205480845260089092529091205460ff16610a035760405162461bcd60e51b81526004016106c090611cb8565b6000818152600a60205260409020548015610aa3576000828152600a602052604080822091909155600154905163a9059cbb60e01b81526001600160a01b038581166004830152602482018490529091169063a9059cbb906044016020604051808303816000875af1158015610a7d573d6000803e3d6000fd5b505050506040513d601f19601f82011682018060405250810190610aa19190611ce6565b505b610aac846112a4565b50505060009283525050600860205260409020805460ff191690555050565b6000610ad56104eb565b92508291506104e5905081611d08565b6000546001600160a01b03163314610b0f5760405162461bcd60e51b81526004016106c090611c83565b610b196000611308565b565b6000546001600160a01b03163314610b455760405162461bcd60e51b81526004016106c090611c83565b604051636c36eaf160e01b81526001600160a01b038a1660048201526024810189905260448101889052606481018790526084810186905260a4810185905260ff841660c482015260e4810183905261010481018290526000903090636c36eaf190610124016020604051808303816000875af1158015610bca573d6000803e3d6000fd5b505050506040513d601f19601f82011682018060405250810190610bee9190611d30565b9050600080610bfb6111ab565b5091935090915050600f82810b9084900b14610c595760405162461bcd60e51b815260206004820152601960248201527f4d4254494e46543a20494e56414c49445f5052494f524954590000000000000060448201526064016106c0565b60008181526008602052604090205460ff16610c875760405162461bcd60e51b81526004016106c090611cb8565b6000818152600860205260409020805460ff19169055610ca68161122f565b505050505050505050505050565b6000610cc06003611358565b905090565b6000610ccf6104eb565b92508291506104e5905081611bff565b6002546040516331a9108f60e11b8152600481018590526000916001600160a01b0387811692911690636352211e90602401602060405180830381865afa158015610d2e573d6000803e3d6000fd5b505050506040513d601f19601f82011682018060405250810190610d529190611d4d565b6001600160a01b031614610da85760405162461bcd60e51b815260206004820152601a60248201527f4d4254494e46543a20494e56414c49445f4f574e45525348495000000000000060448201526064016106c0565b6001600160a01b0385166000908152600960209081526040808320878452909152812080549082610dd883611c68565b90915550604080516001600160a01b038916602082015290810187905260608101829052909150600090608001604051602081830303815290604052805190602001209050610e298188878761108d565b979650505050505050565b6000806000610e416104eb565b909350915060029050610e548284611d6a565b610e5e9190611dcf565b9250505090565b6000610e6f6104eb565b5091508190506104e581611d08565b6000546001600160a01b03163314610ea85760405162461bcd60e51b81526004016106c090611c83565b6001600160a01b038116610f0d5760405162461bcd60e51b815260206004820152602660248201527f4f776e61626c653a206e6577206f776e657220697320746865207a65726f206160448201526564647265737360d01b60648201526084016106c0565b61095281611308565b6000808061049860038561137b565b600181015461095257604080518082019091526000808252602080830182815260019485018054958601815583529120915190516001600160801b03908116600160801b02911617910155565b604080518082019091526000808252602082015260018301548210610faa576040805180820190915260008082526020820152610ff0565b826001018281548110610fbf57610fbf611c52565b600091825260209182902060408051808201909152910154600f81810b8352600160801b909104900b918101919091525b90505b92915050565b6040805180820190915260008082526020820152610ff3826001610f72565b606081600101805480602002602001604051908101604052809291908181526020016000905b828210156110825760008481526020908190206040805180820190915290840154600f81810b8352600160801b909104900b8183015282526001909201910161103e565b505050509050919050565b60008481526008602052604081205460ff16156110bc5760405162461bcd60e51b81526004016106c090611cb8565b60006110c88385611e0d565b6001546040516323b872dd60e01b81526001600160a01b038881166004830152306024830152604482018490529293509116906323b872dd906064016020604051808303816000875af1158015611123573d6000803e3d6000fd5b505050506040513d601f19601f820116820180604052508101906111479190611ce6565b506000868152600a602052604081208054839290611166908490611e2c565b90915550611187905061118061117b856113b0565b61141e565b878761149b565b600096875260086020526040909620805460ff191660011790555093949350505050565b60008060008060006111bd60036114f6565b8051600f90810b6000908152600660208181526040808420548651860b85526007808452828620548851880b8752948452828620869055875190960b855294825290922080546001600160a01b031916905583519190930151909750955093506001600160a01b031691505090919293565b6000818152600a602052604080822080549290556001549051630852cd8d60e31b8152600481018390526001600160a01b03909116906342966c6890602401600060405180830381600087803b15801561128857600080fd5b505af115801561129c573d6000803e3d6000fd5b505050505050565b6000808080806112b5600387611515565b600f9690960b600090815260066020908152604080832080546007845291842080549490915580546001600160a01b03191690558851989091015197989096506001600160a01b03909116945092505050565b600080546001600160a01b038381166001600160a01b0319831681178455604051919092169283917f8be0079c531659141344cd1fd0a4f28419497f9722a3daafe3b4186f6b6457e09190a35050565b600181015460009061136b576000610ff3565b600182810154610ff39190611c25565b6040805180820190915260008082526020820152600f82900b6000908152600284016020526040902054610ff0908490610f72565b60006001600160ff1b0382111561141a5760405162461bcd60e51b815260206004820152602860248201527f53616665436173743a2076616c756520646f65736e27742066697420696e2061604482015267371034b73a191a9b60c11b60648201526084016106c0565b5090565b600060016001607f1b0319821280159061143f575060016001607f1b038213155b61141a5760405162461bcd60e51b815260206004820152602760248201527f53616665436173743a2076616c756520646f65736e27742066697420696e20316044820152663238206269747360c81b60648201526084016106c0565b6000806114a960038661154a565b8051600f90810b6000908152600660209081526040808320899055845190930b8252600790522080546001600160a01b0386166001600160a01b0319909116179055519150509392505050565b6040805180820190915260008082526020820152610ff38260016115e9565b6040805180820190915260008082526020820152600f82900b6000908152600284016020526040902054610ff09084906115e9565b604080518082019091526000808252602082015260018301546115705761157083610f25565b8254600f0b83600061158183611bff565b82546001600160801b039182166101009390930a928302919092021990911617905550600183810180548201808255600091909152604080518082019091528554600f90810b825285900b602082015291610ff091869184916115e49190611c25565b611772565b604080518082019091526000808252602082015260018301548210158061160e575081155b1561162d57506040805180820190915260008082526020820152610ff3565b600083600101838154811061164457611644611c52565b600091825260208083206040805180820182529390910154600f81810b808652600160801b909204900b84840152845260028801909152822082905560018087018054929450916116959190611c25565b815481106116a5576116a5611c52565b600091825260209182902060408051808201909152910154600f81810b8352600160801b909104900b9181019190915260018601805491925090806116ec576116ec611e44565b600082815260208120820160001990810191909155019055600185015484101561176a5761171b858286611772565b61176a8586600101868154811061173457611734611c52565b600091825260209182902060408051808201909152910154600f81810b8352600160801b909104900b918101919091528661183d565b509392505050565b60018114806117bf57506001830161178b600283611e5a565b8154811061179b5761179b611c52565b6000918252602091829020015490830151600160801b909104600f90810b91900b13155b156117d4576117cf8383836119a0565b505050565b61182d83600181016117e7600285611e5a565b815481106117f7576117f7611c52565b600091825260209182902060408051808201909152910154600f81810b8352600160801b909104900b91810191909152836119a0565b6117cf83836115e4600285611e5a565b6001830154600061184f836002611e0d565b9050808211611868576118638585856119a0565b611999565b600085600101828154811061187f5761187f611c52565b600091825260209182902060408051808201909152910154600f81810b8352600160801b909104900b9181019190915290506118bc826001611e2c565b8311801561190657508060200151600f0b866001018360016118de9190611e2c565b815481106118ee576118ee611c52565b600091825260209091200154600160801b9004600f0b135b1561195e576001860161191883611c68565b9250828154811061192b5761192b611c52565b600091825260209182902060408051808201909152910154600f81810b8352600160801b909104900b9181019190915290505b8460200151600f0b8160200151600f0b136119835761197e8686866119a0565b61129c565b61198e8682866119a0565b61129c86868461183d565b5050505050565b818360010182815481106119b6576119b6611c52565b600091825260208083208451948201516001600160801b03908116600160801b0295169490941793909101929092559251600f0b835260029093019092526040902055565b600060208284031215611a0d57600080fd5b5035919050565b80600f0b811461095257600080fd5b600060208284031215611a3557600080fd5b8135610ff081611a14565b606080825284519082018190526000906020906080840190828801845b82811015611a7c578151600f0b84529284019290840190600101611a5d565b505050600f95860b918401919091529290930b60409091015292915050565b60008060008060808587031215611ab157600080fd5b5050823594602084013594506040840135936060013592509050565b6001600160a01b038116811461095257600080fd5b60008060408385031215611af557600080fd5b8235611b0081611acd565b946020939093013593505050565b60008060008060008060008060006101208a8c031215611b2d57600080fd5b8935611b3881611acd565b985060208a0135975060408a0135965060608a0135955060808a0135945060a08a0135935060c08a013560ff81168114611b7157600080fd5b8093505060e08a013591506101008a013590509295985092959850929598565b60008060008060808587031215611ba757600080fd5b8435611bb281611acd565b966020860135965060408601359560600135945092505050565b600060208284031215611bde57600080fd5b8135610ff081611acd565b634e487b7160e01b600052601160045260246000fd5b600081600f0b60016001607f1b03811415611c1c57611c1c611be9565b60010192915050565b600082821015611c3757611c37611be9565b500390565b634e487b7160e01b600052604160045260246000fd5b634e487b7160e01b600052603260045260246000fd5b6000600019821415611c7c57611c7c611be9565b5060010190565b6020808252818101527f4f776e61626c653a2063616c6c6572206973206e6f7420746865206f776e6572604082015260600190565b6020808252601490820152734d4254494e46543a20494e56414c49445f4b455960601b604082015260600190565b600060208284031215611cf857600080fd5b81518015158114610ff057600080fd5b600081600f0b60016001607f1b0319811415611d2657611d26611be9565b6000190192915050565b600060208284031215611d4257600080fd5b8151610ff081611a14565b600060208284031215611d5f57600080fd5b8151610ff081611acd565b600081600f0b83600f0b600082128260016001607f1b0303821381151615611d9457611d94611be9565b8260016001607f1b0319038212811615611db057611db0611be9565b50019392505050565b634e487b7160e01b600052601260045260246000fd5b600081600f0b83600f0b80611de657611de6611db9565b60016001607f1b0319821460001982141615611e0457611e04611be9565b90059392505050565b6000816000190483118215151615611e2757611e27611be9565b500290565b60008219821115611e3f57611e3f611be9565b500190565b634e487b7160e01b600052603160045260246000fd5b600082611e6957611e69611db9565b50049056fea26469706673582212202098f45bc2041e73fc03a939c9527718022a818e59a5348928912419638ccee264736f6c634300080b0033",
  "immutableReferences": {},
  "source": "// SPDX-License-Identifier: MIT\n\npragma solidity ^0.8.0;\n\nimport \"./interfaces/MbtiNftInterface.sol\";\nimport \"./PriorityQueue/Heap.sol\";\nimport \"@openzeppelin/contracts/token/ERC20/IERC20.sol\";\nimport \"@openzeppelin/contracts/token/ERC721/IERC721.sol\";\nimport \"@openzeppelin/contracts/token/ERC20/utils/SafeERC20.sol\";\nimport \"@openzeppelin/contracts/access/Ownable.sol\";\nimport \"@openzeppelin/contracts/utils/Context.sol\";\nimport \"@openzeppelin/contracts/utils/math/SafeCast.sol\";\n\ninterface IERC20Burnable {\n    function burn(uint256 amount) external;\n}\n\n/**\n * @notice\n * \n * Key functions:\n * - `upload`: User uploads key of task.\n * - `inference`: After user requests `upload`, service provider executes inference and submit the result.\n * - `download`: Check responses.\n *\n * TODO:\n *\n * - Ownable.\n * - Implement EIP1559 methods to priority queue.\n */\ncontract MbtiNft is MbtiNftInterface, Context, Ownable {\n    using SafeERC20 for IERC20;\n    using SafeCast for uint256;\n    using SafeCast for int256;\n\n    /* Storage: Tokens */\n    IERC20 public cgv;\n    IERC721 public chinggu;\n\n    /* Storage: Priority Queue */\n    using Heap for Heap.Data;\n    Heap.Data public queue; // request queue\n    mapping(int128 => bytes32) public keys; // request (id => key)\n    mapping(int128 => address) public accounts; // request (id => account)\n    mapping(bytes32 => bool) public pending; // whether key is in the queue or not.\n\n    /* Storage: Inference */\n    // get counter (nonce) by `nonces[account][tokenId]`.\n    mapping(address => mapping(uint256 => uint256)) public nonces;\n    // get amount of locked token by `lockedTokens[key]`.\n    mapping(bytes32 => uint256) public lockedTokens;\n\n    // keccak256(\"Permit(bytes32 key,uint256 permit_nonce,uint256 deadline)\");\n    bytes32 private constant PERMIT_TYPEHASH = 0xb4739a75ec8852fc3f62bdfd066ffa398d94859237fb48c553b1be7600552493;\n    mapping(address => uint256) public permit_nonces;\n\n    /* Events */\n    // TBA\n\n    constructor(address cgv_, address chinggu_) {\n        cgv = IERC20(cgv_);\n        chinggu = IERC721(chinggu_);\n        queue.init(); // priority queue\n    }\n\n    /* Functions: Priority Queue */\n    function _push(int128 priority, bytes32 key, address account) internal returns(int128) {\n        Heap.Node memory n = queue.insert(priority);\n        keys[n.id] = key;\n        accounts[n.id] = account;\n        return n.id;\n    }\n    function _pop() internal returns(int128, int128, bytes32, address) {\n        Heap.Node memory n = queue.extractMax();\n        bytes32 key = keys[n.id];\n        address account = accounts[n.id];\n        delete keys[n.id];\n        delete accounts[n.id];\n        return (n.id, n.priority, key, account);\n    }\n    function _popById(int128 id) internal returns(int128, int128, bytes32, address) {\n        Heap.Node memory n = queue.extractById(id);\n        bytes32 key = keys[id];\n        address account = accounts[id];\n        delete keys[id];\n        delete accounts[id];\n        return (n.id, n.priority, key, account);\n    }\n    function getMax() public view returns(int128, int128) {\n        Heap.Node memory n = queue.getMax();\n        return (n.id, n.priority);\n    }\n    function getById(int128 id) public view returns(int128, int128) {\n        Heap.Node memory n = queue.getById(id);\n        return (n.id, n.priority);\n    }\n    function getByIndex(uint i) public view returns(int128, int128) { // same as getByRank\n        Heap.Node memory n =  queue.getByIndex(i);\n        return (n.id, n.priority);\n    }\n    function size() public view returns(uint){\n        return queue.size();\n    }\n    function idCount() public view returns(int128){\n        return queue.idCount;\n    }\n    function indices(int128 id) public view returns(uint){ // same as ranks\n        return queue.indices[id];\n    }\n\n    /* Functions: Inference Speed */\n    /**\n     * @notice Check all priorities to calculate proper `inferencePrice`.\n     *\n     * Speed:\n     *\n     * - Fastest: max + 1\n     * - Faster\n     * - Average\n     * - Slower\n     * - Slowest: min - 1\n     */\n    function allPriorities() public view returns(int128[] memory ps, int128 maxP, int128 minP) {\n        Heap.Node[] memory ns = queue.dump();\n        ps = new int128[](ns.length - 1);\n        if (ns.length > 1) {\n            maxP = ns[1].priority;\n            minP = ns[1].priority;\n        }\n        for (uint256 i = 1; i < ns.length; i++) {\n            int128 p = ns[i].priority;\n            ps[i - 1] = p;\n            if (maxP < p) {maxP = p;}\n            else if (minP > p) {minP = p;}\n        }\n    }\n    function fastest() public view returns(int128 p) {\n        (, p, ) = allPriorities();\n        p++;\n    }\n    function faster() public view returns(int128 p) {\n        (, p, ) = allPriorities();\n        p--;\n    }\n    function average() public view returns(int128 p) {\n        int128 maxP;\n        int128 minP;\n        (, maxP, minP) = allPriorities();\n        p = (maxP + minP) / 2;\n    }\n    function slower() public view returns(int128 p) {\n        (, , p) = allPriorities();\n        p++;\n    }\n    function slowest() public view returns(int128 p) {\n        (, , p) = allPriorities();\n        p--;\n    }\n\n    /* Functions: Inference */\n\n\t/**\n     * @notice User can skip `upload()` with `permit()`.\n     * Instead, service provider calls `inferenceWithPermit()` only.\n     *\n     * References:\n     *\n     * - https://github.com/Uniswap/v2-core/blob/master/contracts/UniswapV2ERC20.sol\n     */\n    function permit(\n        address account, uint256 tokenId, uint256 nonce,\n        uint256 maxLength, uint256 inferencePrice,\n        uint256 deadline,\n        uint8 v, bytes32 r, bytes32 s\n    ) external returns(int128 id) {\n        require(deadline >= block.timestamp, 'MBTINFT: EXPIRED');\n\n        /* get key */\n        // `key` = kaccak256(address, tokenId, nonce)\n        bytes32 key = keccak256(abi.encode(account, tokenId, nonce));\n\n        /* get digest */\n        bytes32 digest = keccak256(\n            abi.encodePacked(\n                '\\x19Ethereum Signed Message:\\n32',\n                keccak256(abi.encode(\n                    PERMIT_TYPEHASH,\n                    key,\n                    permit_nonces[account]++,\n                    deadline\n                ))\n            )\n        );\n        address recoveredAddress = ecrecover(digest, v, r, s);\n        require(recoveredAddress != address(0) && recoveredAddress == account, 'MBTINFT: INVALID_SIGNATURE');\n        \n        /* Logic what you want */\n        id = _upload(key, account, maxLength, inferencePrice);\n    }\n\n    /**\n     * @notice WARNING: Test purpose only.\n     *\n     * Do not use `upload` with non-exist key.\n     * If so, you can miss (freeze) tokens.\n     */\n    function upload(\n        bytes32 key,\n        uint256 tokenId,\n        uint256 maxLength, uint256 inferencePrice\n    ) public returns(int128 id) {\n        id = _upload(key, _msgSender(), maxLength, inferencePrice);\n        \n        // Forcely update nonce\n        nonces[_msgSender()][tokenId]++;\n    }\n\n    /**\n     * @notice User must do `approve` before `upload`.\n     */\n    function upload(\n        address account, uint256 tokenId,\n        uint256 maxLength, uint256 inferencePrice\n    ) public returns(int128 id) {\n        /* conditions */\n        require(chinggu.ownerOf(tokenId) == account, 'MBTINFT: INVALID_OWNERSHIP');\n\n        /* get key */\n        // `key` = kaccak256(address, tokenId, nonce)\n        uint256 nonce = nonces[account][tokenId]++;\n        bytes32 key = keccak256(abi.encode(account, tokenId, nonce));\n\n        /* upload */\n        id = _upload(key, account, maxLength, inferencePrice);\n    }\n\n    function _upload(\n        bytes32 key,\n        address account,\n        uint256 maxLength, uint256 inferencePrice\n    ) internal returns(int128 id) {\n        /* condition */\n        require(!pending[key], 'MBTINFT: INVALID_KEY');\n\n        /* lock token */\n        uint256 amount = maxLength * inferencePrice;\n        cgv.transferFrom(account, address(this), amount);\n        lockedTokens[key] += amount;\n\n        /* push queue */\n        id = _push(inferencePrice.toInt256().toInt128(), key, account);\n        pending[key] = true;\n    }\n\n    /**\n     * @notice User can cancle there own request(s).\n     */\n    function cancle(int128 id) public {\n        /* condition */\n        address account = accounts[id];\n        require(_msgSender() == account, 'MBTINFT: INVALID_SENDER');\n\n        /* get key */\n        bytes32 key = keys[id];\n        require(pending[key], 'MBTINFT: INVALID_KEY');\n\n        /* unlock token */\n        uint256 amount = lockedTokens[key];\n        if (amount > 0) {\n            lockedTokens[key] = 0;\n            cgv.transfer(account, amount);\n        }\n\n        /* remove element from queue */\n        _popById(id);\n        pending[key] = false;\n    }\n\n    /**\n     * @notice Server replies at the highest priority request.\n     */\n    function inference() public onlyOwner {\n        bytes32 key;\n        (, , key, ) = _pop(); // remove element from queue.\n        require(pending[key], 'MBTINFT: INVALID_KEY'); // check condition.\n        pending[key] = false;\n\n        _inference(key);\n    }\n\n    /**\n     * TODO:\n     *\n     * - Optimization: queue activities, pending array.\n     */\n    function inferenceWithPermit(\n        address account, uint256 tokenId, uint256 nonce,\n        uint256 maxLength, uint256 inferencePrice,\n        uint256 deadline,\n        uint8 v, bytes32 r, bytes32 s\n    ) public onlyOwner {\n        /* upload */\n        int128 id = this.permit(account, tokenId, nonce, maxLength, inferencePrice, deadline, v, r, s);\n        \n        int128 maxId;\n        bytes32 key;\n        (maxId, , key, ) = _pop(); // remove element from queue.\n\n        /* condition */\n        require(maxId == id, 'MBTINFT: INVALID_PRIORITY');\n        require(pending[key], 'MBTINFT: INVALID_KEY'); // check condition.\n        pending[key] = false;\n\n        /* inference */\n        _inference(key);\n    }\n\n    function _inference(bytes32 key) internal {\n        /* burn token */\n        uint256 amount = lockedTokens[key];\n        lockedTokens[key] = 0;\n        IERC20Burnable(address(cgv)).burn(amount);\n\n        /* inferencer */\n        // TODO\n    }\n\n    // function download() public {};\n\n    /* Functions: Etc */\n}\n",
  "sourcePath": "/home/lukepark/kakaobrain/mbtinft-contracts/contracts/MbtiNft_Main.sol",
  "compiler": {
    "name": "solc",
    "version": "0.8.11+commit.d7f03943.Emscripten.clang"
  },
  "schemaVersion": "3.4.5",
  "updatedAt": "2022-02-25T04:48:33.116Z",
  "devdoc": {
    "kind": "dev",
    "methods": {
      "owner()": {
        "details": "Returns the address of the current owner."
      },
      "renounceOwnership()": {
        "details": "Leaves the contract without owner. It will not be possible to call `onlyOwner` functions anymore. Can only be called by the current owner. NOTE: Renouncing ownership will leave the contract without an owner, thereby removing any functionality that is only available to the owner."
      },
      "transferOwnership(address)": {
        "details": "Transfers ownership of the contract to a new account (`newOwner`). Can only be called by the current owner."
      }
    },
    "version": 1
  },
  "userdoc": {
    "kind": "user",
    "methods": {
      "allPriorities()": {
        "notice": "Check all priorities to calculate proper `inferencePrice`. Speed: - Fastest: max + 1 - Faster - Average - Slower - Slowest: min - 1"
      },
      "cancle(int128)": {
        "notice": "User can cancle there own request(s)."
      },
      "inference()": {
        "notice": "Server replies at the highest priority request."
      },
      "inferenceWithPermit(address,uint256,uint256,uint256,uint256,uint256,uint8,bytes32,bytes32)": {
        "notice": "TODO: - Optimization: queue activities, pending array."
      },
      "permit(address,uint256,uint256,uint256,uint256,uint256,uint8,bytes32,bytes32)": {
        "notice": "User can skip `upload()` with `permit()`. Instead, service provider calls `inferenceWithPermit()` only. References: - https://github.com/Uniswap/v2-core/blob/master/contracts/UniswapV2ERC20.sol"
      },
      "upload(address,uint256,uint256,uint256)": {
        "notice": "User must do `approve` before `upload`."
      },
      "upload(bytes32,uint256,uint256,uint256)": {
        "notice": "WARNING: Test purpose only. Do not use `upload` with non-exist key. If so, you can miss (freeze) tokens."
      }
    },
    "notice": " Key functions: - `upload`: User uploads key of task. - `inference`: After user requests `upload`, service provider executes inference and submit the result. - `download`: Check responses. TODO: - Ownable. - Implement EIP1559 methods to priority queue.",
    "version": 1
  }
}