{
  "contractName": "ChingGu",
  "abi": [
    {
      "inputs": [],
      "stateMutability": "nonpayable",
      "type": "constructor"
    },
    {
      "anonymous": false,
      "inputs": [
        {
          "indexed": true,
          "internalType": "address",
          "name": "owner",
          "type": "address"
        },
        {
          "indexed": true,
          "internalType": "address",
          "name": "approved",
          "type": "address"
        },
        {
          "indexed": true,
          "internalType": "uint256",
          "name": "tokenId",
          "type": "uint256"
        }
      ],
      "name": "Approval",
      "type": "event"
    },
    {
      "anonymous": false,
      "inputs": [
        {
          "indexed": true,
          "internalType": "address",
          "name": "owner",
          "type": "address"
        },
        {
          "indexed": true,
          "internalType": "address",
          "name": "operator",
          "type": "address"
        },
        {
          "indexed": false,
          "internalType": "bool",
          "name": "approved",
          "type": "bool"
        }
      ],
      "name": "ApprovalForAll",
      "type": "event"
    },
    {
      "anonymous": false,
      "inputs": [
        {
          "indexed": true,
          "internalType": "address",
          "name": "previousOwner",
          "type": "address"
        },
        {
          "indexed": true,
          "internalType": "address",
          "name": "newOwner",
          "type": "address"
        }
      ],
      "name": "OwnershipTransferred",
      "type": "event"
    },
    {
      "anonymous": false,
      "inputs": [
        {
          "indexed": false,
          "internalType": "uint256",
          "name": "tokenId",
          "type": "uint256"
        },
        {
          "indexed": false,
          "internalType": "uint256",
          "name": "degree",
          "type": "uint256"
        }
      ],
      "name": "Rare",
      "type": "event"
    },
    {
      "anonymous": false,
      "inputs": [
        {
          "indexed": true,
          "internalType": "address",
          "name": "from",
          "type": "address"
        },
        {
          "indexed": true,
          "internalType": "address",
          "name": "to",
          "type": "address"
        },
        {
          "indexed": true,
          "internalType": "uint256",
          "name": "tokenId",
          "type": "uint256"
        }
      ],
      "name": "Transfer",
      "type": "event"
    },
    {
      "inputs": [
        {
          "internalType": "address",
          "name": "to",
          "type": "address"
        },
        {
          "internalType": "uint256",
          "name": "tokenId",
          "type": "uint256"
        }
      ],
      "name": "approve",
      "outputs": [],
      "stateMutability": "nonpayable",
      "type": "function"
    },
    {
      "inputs": [
        {
          "internalType": "address",
          "name": "owner",
          "type": "address"
        }
      ],
      "name": "balanceOf",
      "outputs": [
        {
          "internalType": "uint256",
          "name": "",
          "type": "uint256"
        }
      ],
      "stateMutability": "view",
      "type": "function"
    },
    {
      "inputs": [
        {
          "internalType": "uint256",
          "name": "tokenId",
          "type": "uint256"
        }
      ],
      "name": "getApproved",
      "outputs": [
        {
          "internalType": "address",
          "name": "",
          "type": "address"
        }
      ],
      "stateMutability": "view",
      "type": "function"
    },
    {
      "inputs": [
        {
          "internalType": "address",
          "name": "owner",
          "type": "address"
        },
        {
          "internalType": "address",
          "name": "operator",
          "type": "address"
        }
      ],
      "name": "isApprovedForAll",
      "outputs": [
        {
          "internalType": "bool",
          "name": "",
          "type": "bool"
        }
      ],
      "stateMutability": "view",
      "type": "function"
    },
    {
      "inputs": [],
      "name": "name",
      "outputs": [
        {
          "internalType": "string",
          "name": "",
          "type": "string"
        }
      ],
      "stateMutability": "view",
      "type": "function"
    },
    {
      "inputs": [],
      "name": "owner",
      "outputs": [
        {
          "internalType": "address",
          "name": "",
          "type": "address"
        }
      ],
      "stateMutability": "view",
      "type": "function"
    },
    {
      "inputs": [
        {
          "internalType": "uint256",
          "name": "tokenId",
          "type": "uint256"
        }
      ],
      "name": "ownerOf",
      "outputs": [
        {
          "internalType": "address",
          "name": "",
          "type": "address"
        }
      ],
      "stateMutability": "view",
      "type": "function"
    },
    {
      "inputs": [],
      "name": "renounceOwnership",
      "outputs": [],
      "stateMutability": "nonpayable",
      "type": "function"
    },
    {
      "inputs": [
        {
          "internalType": "address",
          "name": "from",
          "type": "address"
        },
        {
          "internalType": "address",
          "name": "to",
          "type": "address"
        },
        {
          "internalType": "uint256",
          "name": "tokenId",
          "type": "uint256"
        }
      ],
      "name": "safeTransferFrom",
      "outputs": [],
      "stateMutability": "nonpayable",
      "type": "function"
    },
    {
      "inputs": [
        {
          "internalType": "address",
          "name": "from",
          "type": "address"
        },
        {
          "internalType": "address",
          "name": "to",
          "type": "address"
        },
        {
          "internalType": "uint256",
          "name": "tokenId",
          "type": "uint256"
        },
        {
          "internalType": "bytes",
          "name": "_data",
          "type": "bytes"
        }
      ],
      "name": "safeTransferFrom",
      "outputs": [],
      "stateMutability": "nonpayable",
      "type": "function"
    },
    {
      "inputs": [
        {
          "internalType": "address",
          "name": "operator",
          "type": "address"
        },
        {
          "internalType": "bool",
          "name": "approved",
          "type": "bool"
        }
      ],
      "name": "setApprovalForAll",
      "outputs": [],
      "stateMutability": "nonpayable",
      "type": "function"
    },
    {
      "inputs": [
        {
          "internalType": "bytes4",
          "name": "interfaceId",
          "type": "bytes4"
        }
      ],
      "name": "supportsInterface",
      "outputs": [
        {
          "internalType": "bool",
          "name": "",
          "type": "bool"
        }
      ],
      "stateMutability": "view",
      "type": "function"
    },
    {
      "inputs": [],
      "name": "symbol",
      "outputs": [
        {
          "internalType": "string",
          "name": "",
          "type": "string"
        }
      ],
      "stateMutability": "view",
      "type": "function"
    },
    {
      "inputs": [
        {
          "internalType": "uint256",
          "name": "tokenId",
          "type": "uint256"
        }
      ],
      "name": "tokenURI",
      "outputs": [
        {
          "internalType": "string",
          "name": "",
          "type": "string"
        }
      ],
      "stateMutability": "view",
      "type": "function"
    },
    {
      "inputs": [
        {
          "internalType": "address",
          "name": "from",
          "type": "address"
        },
        {
          "internalType": "address",
          "name": "to",
          "type": "address"
        },
        {
          "internalType": "uint256",
          "name": "tokenId",
          "type": "uint256"
        }
      ],
      "name": "transferFrom",
      "outputs": [],
      "stateMutability": "nonpayable",
      "type": "function"
    },
    {
      "inputs": [
        {
          "internalType": "address",
          "name": "newOwner",
          "type": "address"
        }
      ],
      "name": "transferOwnership",
      "outputs": [],
      "stateMutability": "nonpayable",
      "type": "function"
    },
    {
      "inputs": [
        {
          "internalType": "uint256",
          "name": "job",
          "type": "uint256"
        }
      ],
      "name": "mint",
      "outputs": [],
      "stateMutability": "nonpayable",
      "type": "function"
    },
    {
      "inputs": [
        {
          "internalType": "address",
          "name": "account",
          "type": "address"
        }
      ],
      "name": "collectables",
      "outputs": [
        {
          "internalType": "uint256[]",
          "name": "",
          "type": "uint256[]"
        }
      ],
      "stateMutability": "view",
      "type": "function"
    },
    {
      "inputs": [
        {
          "internalType": "uint64",
          "name": "energy",
          "type": "uint64"
        },
        {
          "internalType": "uint64",
          "name": "information",
          "type": "uint64"
        },
        {
          "internalType": "uint64",
          "name": "decision",
          "type": "uint64"
        },
        {
          "internalType": "uint64",
          "name": "relate",
          "type": "uint64"
        }
      ],
      "name": "getMBTI",
      "outputs": [
        {
          "internalType": "string",
          "name": "",
          "type": "string"
        }
      ],
      "stateMutability": "pure",
      "type": "function"
    },
    {
      "inputs": [
        {
          "internalType": "uint256",
          "name": "job",
          "type": "uint256"
        }
      ],
      "name": "getMBTI",
      "outputs": [
        {
          "internalType": "string",
          "name": "",
          "type": "string"
        }
      ],
      "stateMutability": "pure",
      "type": "function"
    },
    {
      "inputs": [
        {
          "internalType": "address",
          "name": "account",
          "type": "address"
        },
        {
          "internalType": "uint256",
          "name": "tokenId",
          "type": "uint256"
        },
        {
          "internalType": "uint256",
          "name": "amount",
          "type": "uint256"
        }
      ],
      "name": "addAmount",
      "outputs": [],
      "stateMutability": "nonpayable",
      "type": "function"
    },
    {
      "inputs": [
        {
          "internalType": "address",
          "name": "account",
          "type": "address"
        },
        {
          "internalType": "uint256",
          "name": "tokenId",
          "type": "uint256"
        },
        {
          "internalType": "uint256",
          "name": "love",
          "type": "uint256"
        }
      ],
      "name": "addLove",
      "outputs": [],
      "stateMutability": "nonpayable",
      "type": "function"
    },
    {
      "inputs": [
        {
          "internalType": "address",
          "name": "account",
          "type": "address"
        },
        {
          "internalType": "uint256",
          "name": "tokenId",
          "type": "uint256"
        },
        {
          "internalType": "uint256",
          "name": "popularity",
          "type": "uint256"
        }
      ],
      "name": "addPopularity",
      "outputs": [],
      "stateMutability": "nonpayable",
      "type": "function"
    },
    {
      "inputs": [
        {
          "internalType": "address",
          "name": "account",
          "type": "address"
        },
        {
          "internalType": "uint256",
          "name": "tokenId",
          "type": "uint256"
        },
        {
          "internalType": "uint256",
          "name": "sp",
          "type": "uint256"
        }
      ],
      "name": "addSp",
      "outputs": [],
      "stateMutability": "nonpayable",
      "type": "function"
    },
    {
      "inputs": [
        {
          "internalType": "address",
          "name": "account",
          "type": "address"
        },
        {
          "internalType": "uint256",
          "name": "tokenId",
          "type": "uint256"
        },
        {
          "internalType": "uint64",
          "name": "E",
          "type": "uint64"
        },
        {
          "internalType": "uint64",
          "name": "I",
          "type": "uint64"
        },
        {
          "internalType": "uint64",
          "name": "S",
          "type": "uint64"
        },
        {
          "internalType": "uint64",
          "name": "N",
          "type": "uint64"
        },
        {
          "internalType": "uint64",
          "name": "T",
          "type": "uint64"
        },
        {
          "internalType": "uint64",
          "name": "F",
          "type": "uint64"
        },
        {
          "internalType": "uint64",
          "name": "J",
          "type": "uint64"
        },
        {
          "internalType": "uint64",
          "name": "P",
          "type": "uint64"
        }
      ],
      "name": "teach",
      "outputs": [],
      "stateMutability": "nonpayable",
      "type": "function"
    },
    {
      "inputs": [
        {
          "internalType": "uint256",
          "name": "tokenId",
          "type": "uint256"
        },
        {
          "internalType": "string",
          "name": "_tokenURI",
          "type": "string"
        }
      ],
      "name": "setTokenURI",
      "outputs": [],
      "stateMutability": "nonpayable",
      "type": "function"
    },
    {
      "inputs": [
        {
          "internalType": "address",
          "name": "account",
          "type": "address"
        },
        {
          "internalType": "uint256",
          "name": "tokenId",
          "type": "uint256"
        }
      ],
      "name": "properties",
      "outputs": [
        {
          "internalType": "uint256",
          "name": "amount",
          "type": "uint256"
        },
        {
          "internalType": "uint256",
          "name": "love",
          "type": "uint256"
        },
        {
          "internalType": "uint256",
          "name": "rarity",
          "type": "uint256"
        },
        {
          "internalType": "uint256",
          "name": "popularity",
          "type": "uint256"
        },
        {
          "internalType": "uint64",
          "name": "energy",
          "type": "uint64"
        },
        {
          "internalType": "uint64",
          "name": "information",
          "type": "uint64"
        },
        {
          "internalType": "uint64",
          "name": "decision",
          "type": "uint64"
        },
        {
          "internalType": "uint64",
          "name": "relate",
          "type": "uint64"
        },
        {
          "internalType": "uint256",
          "name": "sp",
          "type": "uint256"
        }
      ],
      "stateMutability": "view",
      "type": "function"
    },
    {
      "inputs": [
        {
          "internalType": "address",
          "name": "account",
          "type": "address"
        },
        {
          "internalType": "uint256",
          "name": "tokenId",
          "type": "uint256"
        },
        {
          "internalType": "uint256",
          "name": "amount",
          "type": "uint256"
        },
        {
          "internalType": "uint256",
          "name": "love",
          "type": "uint256"
        },
        {
          "internalType": "uint256",
          "name": "rarity",
          "type": "uint256"
        },
        {
          "internalType": "uint256",
          "name": "popularity",
          "type": "uint256"
        },
        {
          "internalType": "uint64",
          "name": "energy",
          "type": "uint64"
        },
        {
          "internalType": "uint64",
          "name": "information",
          "type": "uint64"
        },
        {
          "internalType": "uint64",
          "name": "decision",
          "type": "uint64"
        },
        {
          "internalType": "uint64",
          "name": "relate",
          "type": "uint64"
        },
        {
          "internalType": "uint256",
          "name": "sp",
          "type": "uint256"
        }
      ],
      "name": "_setProperties",
      "outputs": [],
      "stateMutability": "nonpayable",
      "type": "function"
    }
  ],
  "bytecode": "0x60806040523480156200001157600080fd5b50604080518082018252600f81526e4368696e6747752d50726f66696c6560881b60208083019182528351808501909452600384526204347560ec1b9084015281519192916200006491600091620000f3565b5080516200007a906001906020840190620000f3565b50505062000097620000916200009d60201b60201c565b620000a1565b620001d6565b3390565b600780546001600160a01b038381166001600160a01b0319831681179093556040519116919082907f8be0079c531659141344cd1fd0a4f28419497f9722a3daafe3b4186f6b6457e090600090a35050565b828054620001019062000199565b90600052602060002090601f01602090048101928262000125576000855562000170565b82601f106200014057805160ff191683800117855562000170565b8280016001018555821562000170579182015b828111156200017057825182559160200191906001019062000153565b506200017e92915062000182565b5090565b5b808211156200017e576000815560010162000183565b600181811c90821680620001ae57607f821691505b60208210811415620001d057634e487b7160e01b600052602260045260246000fd5b50919050565b612c4780620001e66000396000f3fe608060405234801561001057600080fd5b50600436106101c45760003560e01c806379da9565116100f9578063afb3957911610097578063cfbcf4f511610071578063cfbcf4f5146105f2578063e0c3006b14610605578063e985e9c514610618578063f2fde38b1461065457600080fd5b8063afb39579146105b9578063b88d4fde146105cc578063c87b56dd146105df57600080fd5b806395d89b41116100d357806395d89b4114610467578063a0712d681461046f578063a22cb46514610482578063a55d918c1461049557600080fd5b806379da9565146104305780637abeac95146104435780638da5cb5b1461045657600080fd5b806323b872dd11610166578063543731201161014057806354373120146103e15780636352211e146103f457806370a0823114610407578063715018a61461042857600080fd5b806323b872dd1461039b57806326922401146103ae57806342842e0e146103ce57600080fd5b8063095ea7b3116101a2578063095ea7b31461023157806314bfcdd714610246578063162094c41461037557806318eb3e361461038857600080fd5b806301ffc9a7146101c957806306fdde03146101f1578063081812fc14610206575b600080fd5b6101dc6101d73660046123cd565b610667565b60405190151581526020015b60405180910390f35b6101f96106b9565b6040516101e89190612442565b610219610214366004612455565b61074b565b6040516001600160a01b0390911681526020016101e8565b61024461023f366004612485565b6107d8565b005b610323610254366004612485565b6001600160a01b039091166000908152600a6020908152604080832093835292815290829020825160c081018452815481526001820154818401908152600283015482860190815260038401546060808501918252875160808181018a5260048801546001600160401b038082168452600160401b820481169a84019a8b52600160801b820481169b84019b8c52600160c01b90910416928201928352860181905260059096015460a08601819052945193519251915195519651975190519398929791969491939092909190565b60408051998a5260208a01989098529688019590955260608701939093526001600160401b039182166080870152811660a086015290811660c08501521660e0830152610100820152610120016101e8565b61024461038336600461253a565b6108ee565b6101f96103963660046125ab565b6108fc565b6102446103a93660046125ff565b610afd565b6103c16103bc36600461263b565b610b2e565b6040516101e89190612656565b6102446103dc3660046125ff565b610b9a565b6102446103ef36600461269a565b610bb5565b610219610402366004612455565b610bf8565b61041a61041536600461263b565b610c6f565b6040519081526020016101e8565b610244610cf6565b61024461043e36600461269a565b610d5c565b61024461045136600461269a565b610d93565b6007546001600160a01b0316610219565b6101f9610dcb565b61024461047d366004612455565b610dda565b6102446104903660046126cd565b61113f565b6102446104a3366004612709565b6040805160c081018252998a526020808b01998a528a82019889526060808c019889528251608081810185526001600160401b03998a168252978916818401529588168684015293871685850152948a0193845260a08a019182526001600160a01b03909b166000908152600a85528b81209a8152998452988a90209751885595516001880155935160028701559151600386015591518051600486018054938301519883015192909501518416600160c01b026001600160c01b03928516600160801b02929092166fffffffffffffffffffffffffffffffff988516600160401b026fffffffffffffffffffffffffffffffff1990941691909416179190911795909516179390931790925551600590910155565b6102446105c736600461269a565b61114a565b6102446105da3660046127ab565b611182565b6101f96105ed366004612455565b6111ba565b6101f9610600366004612455565b611329565b610244610613366004612826565b6114fd565b6101dc6106263660046128d9565b6001600160a01b03918216600090815260056020908152604080832093909416825291909152205460ff1690565b61024461066236600461263b565b6117b2565b60006001600160e01b031982166380ac58cd60e01b148061069857506001600160e01b03198216635b5e139f60e01b145b806106b357506301ffc9a760e01b6001600160e01b03198316145b92915050565b6060600080546106c89061290c565b80601f01602080910402602001604051908101604052809291908181526020018280546106f49061290c565b80156107415780601f1061071657610100808354040283529160200191610741565b820191906000526020600020905b81548152906001019060200180831161072457829003601f168201915b5050505050905090565b60006107568261187d565b6107bc5760405162461bcd60e51b815260206004820152602c60248201527f4552433732313a20617070726f76656420717565727920666f72206e6f6e657860448201526b34b9ba32b73a103a37b5b2b760a11b60648201526084015b60405180910390fd5b506000908152600460205260409020546001600160a01b031690565b60006107e382610bf8565b9050806001600160a01b0316836001600160a01b031614156108515760405162461bcd60e51b815260206004820152602160248201527f4552433732313a20617070726f76616c20746f2063757272656e74206f776e656044820152603960f91b60648201526084016107b3565b336001600160a01b038216148061086d575061086d8133610626565b6108df5760405162461bcd60e51b815260206004820152603860248201527f4552433732313a20617070726f76652063616c6c6572206973206e6f74206f7760448201527f6e6572206e6f7220617070726f76656420666f7220616c6c000000000000000060648201526084016107b3565b6108e9838361189a565b505050565b6108f88282611908565b5050565b6060846001600160401b031660321480156109205750836001600160401b03166032145b80156109355750826001600160401b03166032145b801561094a5750816001600160401b03166032145b1561097357506040805180820190915260078152661b995d5d1c985b60ca1b6020820152610af5565b61097b6122d9565b6032866001600160401b031610156109ac576040805180820190915260018152604960f81b602082015281526109c7565b6040805180820190915260018152604560f81b602082015281525b6032856001600160401b031610156109fe57604080518082019091526001808252602760f91b602083015282906020020152610a1f565b604080518082019091526001808252605360f81b6020830152829060200201525b6032846001600160401b03161015610a515760408051808201825260018152602360f91b602082015290820152610a6d565b60408051808201825260018152601560fa1b6020820152908201525b6032836001600160401b03161015610aa1576040805180820190915260018152600560fc1b60208201526060820152610abf565b6040805180820190915260018152602560f91b602082015260608201525b805160208083015160408085015160608601519151610ae2959491929101612957565b6040516020818303038152906040529150505b949350505050565b610b073382611993565b610b235760405162461bcd60e51b81526004016107b3906129ae565b6108e9838383611a79565b6001600160a01b038116600090815260086020908152604091829020805483518184028101840190945280845260609392830182828015610b8e57602002820191906000526020600020905b815481526020019060010190808311610b7a575b50505050509050919050565b6108e983838360405180602001604052806000815250611182565b6001600160a01b0383166000908152600a60209081526040808320858452909152812060018101805491928492610bed908490612a15565b909155505050505050565b6000818152600260205260408120546001600160a01b0316806106b35760405162461bcd60e51b815260206004820152602960248201527f4552433732313a206f776e657220717565727920666f72206e6f6e657869737460448201526832b73a103a37b5b2b760b91b60648201526084016107b3565b60006001600160a01b038216610cda5760405162461bcd60e51b815260206004820152602a60248201527f4552433732313a2062616c616e636520717565727920666f7220746865207a65604482015269726f206164647265737360b01b60648201526084016107b3565b506001600160a01b031660009081526003602052604090205490565b6007546001600160a01b03163314610d505760405162461bcd60e51b815260206004820181905260248201527f4f776e61626c653a2063616c6c6572206973206e6f7420746865206f776e657260448201526064016107b3565b610d5a6000611c15565b565b6001600160a01b0383166000908152600a602090815260408083208584529091528120805490918391839190610bed908490612a15565b6001600160a01b0383166000908152600a60209081526040808320858452909152812060038101805491928492610bed908490612a15565b6060600180546106c89061290c565b6009805460009182610deb83612a2d565b90915550905033610dfc8183611c67565b6001600160a01b0381166000818152600860209081526040808320805460018101825590845282842001869055928252600a8152828220858352905290812090610e4c610e47611d9a565b611dd8565b6001600160401b038116600284018190556040805187815260208101929092529192507ff7beca12aff38a778c2c744bdd034145e5c3fd0af3eb2594875d9229905b74af910160405180910390a18460101415610eeb57610eae600582612a48565b610eb9906004612a48565b6001600160401b0316600583015578320000000000000032000000000000003200000000000000326004830155611138565b6000610ef686611e53565b805190915015610f3e57610f0b600583612a48565b610f16906032612a77565b60048401805467ffffffffffffffff19166001600160401b0392909216919091179055610f78565b610f49600583612a48565b610f54906032612a9f565b60048401805467ffffffffffffffff19166001600160401b03929092169190911790555b602081015115610fcb57610f8d600583612a48565b610f98906032612a77565b6004840180546001600160401b0392909216600160401b0267ffffffffffffffff60401b19909216919091179055611010565b610fd6600583612a48565b610fe1906032612a9f565b6004840180546001600160401b0392909216600160401b0267ffffffffffffffff60401b199092169190911790555b60408101511561106357611025600583612a48565b611030906032612a77565b6004840180546001600160401b0392909216600160801b0267ffffffffffffffff60801b199092169190911790556110a8565b61106e600583612a48565b611079906032612a9f565b6004840180546001600160401b0392909216600160801b0267ffffffffffffffff60801b199092169190911790555b6060810151156110f6576110bd600583612a48565b6110c8906032612a77565b6004840180546001600160401b0392909216600160c01b026001600160c01b03909216919091179055611136565b611101600583612a48565b61110c906032612a9f565b6004840180546001600160401b0392909216600160c01b026001600160c01b039092169190911790555b505b5050505050565b6108f8338383611f07565b6001600160a01b0383166000908152600a60209081526040808320858452909152812060058101805491928492610bed908490612a15565b61118c3383611993565b6111a85760405162461bcd60e51b81526004016107b3906129ae565b6111b484848484611fd6565b50505050565b60606111c58261187d565b61122b5760405162461bcd60e51b815260206004820152603160248201527f45524337323155524953746f726167653a2055524920717565727920666f72206044820152703737b732bc34b9ba32b73a103a37b5b2b760791b60648201526084016107b3565b600082815260066020526040812080546112449061290c565b80601f01602080910402602001604051908101604052809291908181526020018280546112709061290c565b80156112bd5780601f10611292576101008083540402835291602001916112bd565b820191906000526020600020905b8154815290600101906020018083116112a057829003601f168201915b5050505050905060006112db60408051602081019091526000815290565b90508051600014156112ee575092915050565b815115611320578082604051602001611308929190612aca565b60405160208183030381529060405292505050919050565b610af584612009565b606081601014156113575750506040805180820190915260078152661b995d5d1c985b60ca1b602082015290565b601082106113a35760405162461bcd60e51b815260206004820152601960248201527821b434b733a3ba9d1022ac21a2a2a22fa127aaa72220a92c9760391b60448201526064016107b3565b6113ab6122d9565b60006113b684611e53565b8051909150156113df576040805180820190915260018152604960f81b602082015282526113fa565b6040805180820190915260018152604560f81b602082015282525b60208101511561142957604080518082019091526001808252602760f91b60208301528390602002015261144a565b604080518082019091526001808252605360f81b6020830152839060200201525b6040810151156114745760408051808201825260018152602360f91b602082015290830152611490565b60408051808201825260018152601560fa1b6020820152908301525b6060810151156114bc576040805180820190915260018152600560fc1b602082015260608301526114da565b6040805180820190915260018152602560f91b602082015260608301525b815160208084015160408086015160608701519151611308959491929101612957565b6000600a60008c6001600160a01b03166001600160a01b0316815260200190815260200160002060008b8152602001908152602001600020905081838587898b8d8f6115499190612a9f565b6115539190612a9f565b61155d9190612a9f565b6115679190612a9f565b6115719190612a9f565b61157b9190612a9f565b6115859190612a9f565b6001600160401b0316816005015410156115da5760405162461bcd60e51b815260206004820152601660248201527510da1a5b99d1dd4e88115610d1515117d05353d5539560521b60448201526064016107b3565b81838587898b8d8f6115ec9190612a9f565b6115f69190612a9f565b6116009190612a9f565b61160a9190612a9f565b6116149190612a9f565b61161e9190612a9f565b6116289190612a9f565b6001600160401b03168160050160008282546116449190612af0565b909155506116549050888a612a77565b600482018054919a508a916000906116769084906001600160401b0316612a9f565b92506101000a8154816001600160401b0302191690836001600160401b0316021790555085876116a69190612a77565b60048201805491985088916008906116cf908490600160401b90046001600160401b0316612a9f565b92506101000a8154816001600160401b0302191690836001600160401b0316021790555083856116ff9190612a77565b6004820180549196508691601090611728908490600160801b90046001600160401b0316612a9f565b92506101000a8154816001600160401b0302191690836001600160401b0316021790555081836117589190612a77565b6004820180549194508491601890611781908490600160c01b90046001600160401b0316612a9f565b92506101000a8154816001600160401b0302191690836001600160401b031602179055505050505050505050505050565b6007546001600160a01b0316331461180c5760405162461bcd60e51b815260206004820181905260248201527f4f776e61626c653a2063616c6c6572206973206e6f7420746865206f776e657260448201526064016107b3565b6001600160a01b0381166118715760405162461bcd60e51b815260206004820152602660248201527f4f776e61626c653a206e6577206f776e657220697320746865207a65726f206160448201526564647265737360d01b60648201526084016107b3565b61187a81611c15565b50565b6000908152600260205260409020546001600160a01b0316151590565b600081815260046020526040902080546001600160a01b0319166001600160a01b03841690811790915581906118cf82610bf8565b6001600160a01b03167f8c5be1e5ebec7d5bd14f71427d1e84f3dd0314c0f7b2291e5b200ac8c7c3b92560405160405180910390a45050565b6119118261187d565b6119745760405162461bcd60e51b815260206004820152602e60248201527f45524337323155524953746f726167653a2055524920736574206f66206e6f6e60448201526d32bc34b9ba32b73a103a37b5b2b760911b60648201526084016107b3565b600082815260066020908152604090912082516108e992840190612300565b600061199e8261187d565b6119ff5760405162461bcd60e51b815260206004820152602c60248201527f4552433732313a206f70657261746f7220717565727920666f72206e6f6e657860448201526b34b9ba32b73a103a37b5b2b760a11b60648201526084016107b3565b6000611a0a83610bf8565b9050806001600160a01b0316846001600160a01b03161480611a455750836001600160a01b0316611a3a8461074b565b6001600160a01b0316145b80610af557506001600160a01b0380821660009081526005602090815260408083209388168352929052205460ff16610af5565b826001600160a01b0316611a8c82610bf8565b6001600160a01b031614611af05760405162461bcd60e51b815260206004820152602560248201527f4552433732313a207472616e736665722066726f6d20696e636f72726563742060448201526437bbb732b960d91b60648201526084016107b3565b6001600160a01b038216611b525760405162461bcd60e51b8152602060048201526024808201527f4552433732313a207472616e7366657220746f20746865207a65726f206164646044820152637265737360e01b60648201526084016107b3565b611b5d60008261189a565b6001600160a01b0383166000908152600360205260408120805460019290611b86908490612af0565b90915550506001600160a01b0382166000908152600360205260408120805460019290611bb4908490612a15565b909155505060008181526002602052604080822080546001600160a01b0319166001600160a01b0386811691821790925591518493918716917fddf252ad1be2c89b69c2b068fc378daa952ba7f163c4a11628f55a4df523b3ef91a4505050565b600780546001600160a01b038381166001600160a01b0319831681179093556040519116919082907f8be0079c531659141344cd1fd0a4f28419497f9722a3daafe3b4186f6b6457e090600090a35050565b6001600160a01b038216611cbd5760405162461bcd60e51b815260206004820181905260248201527f4552433732313a206d696e7420746f20746865207a65726f206164647265737360448201526064016107b3565b611cc68161187d565b15611d135760405162461bcd60e51b815260206004820152601c60248201527f4552433732313a20746f6b656e20616c7265616479206d696e7465640000000060448201526064016107b3565b6001600160a01b0382166000908152600360205260408120805460019290611d3c908490612a15565b909155505060008181526002602052604080822080546001600160a01b0319166001600160a01b03861690811790915590518392907fddf252ad1be2c89b69c2b068fc378daa952ba7f163c4a11628f55a4df523b3ef908290a45050565b60004260001b600b54604051602001611db591815260200190565b60408051601f19818403018152919052805160209091012017600b819055919050565b60006014611de7606484612b1d565b1015611df557506005919050565b6028611e02606484612b1d565b1015611e1057506004919050565b603c611e1d606484612b1d565b1015611e2b57506003919050565b6050611e38606484612b1d565b1015611e4657506002919050565b506001919050565b919050565b611e5b612384565b60108210611ea75760405162461bcd60e51b815260206004820152601960248201527821b434b733a3ba9d1022ac21a2a2a22fa127aaa72220a92c9760391b60448201526064016107b3565b60005b8215611f0157611ebb600284612b1d565b600114611ec9576000611ecc565b60015b8282611ed781612b31565b935060ff1660048110611eec57611eec612941565b91151560209092020152600283049250611eaa565b50919050565b816001600160a01b0316836001600160a01b03161415611f695760405162461bcd60e51b815260206004820152601960248201527f4552433732313a20617070726f766520746f2063616c6c65720000000000000060448201526064016107b3565b6001600160a01b03838116600081815260056020908152604080832094871680845294825291829020805460ff191686151590811790915591519182527f17307eab39ab6107e8899845ad3d59bd9653f200f220920489ca2b5937696c31910160405180910390a3505050565b611fe1848484611a79565b611fed848484846120e1565b6111b45760405162461bcd60e51b81526004016107b390612b51565b60606120148261187d565b6120785760405162461bcd60e51b815260206004820152602f60248201527f4552433732314d657461646174613a2055524920717565727920666f72206e6f60448201526e3732bc34b9ba32b73a103a37b5b2b760891b60648201526084016107b3565b600061208f60408051602081019091526000815290565b905060008151116120af57604051806020016040528060008152506120da565b806120b9846121dc565b6040516020016120ca929190612aca565b6040516020818303038152906040525b9392505050565b60006001600160a01b0384163b156121d457604051630a85bd0160e11b81526001600160a01b0385169063150b7a0290612125903390899088908890600401612ba3565b6020604051808303816000875af1925050508015612160575060408051601f3d908101601f1916820190925261215d91810190612be0565b60015b6121ba573d80801561218e576040519150601f19603f3d011682016040523d82523d6000602084013e612193565b606091505b5080516121b25760405162461bcd60e51b81526004016107b390612b51565b805181602001fd5b6001600160e01b031916630a85bd0160e11b149050610af5565b506001610af5565b6060816122005750506040805180820190915260018152600360fc1b602082015290565b8160005b811561222a578061221481612a2d565b91506122239050600a83612bfd565b9150612204565b6000816001600160401b03811115612244576122446124af565b6040519080825280601f01601f19166020018201604052801561226e576020820181803683370190505b5090505b8415610af557612283600183612af0565b9150612290600a86612b1d565b61229b906030612a15565b60f81b8183815181106122b0576122b0612941565b60200101906001600160f81b031916908160001a9053506122d2600a86612bfd565b9450612272565b60405180608001604052806004905b60608152602001906001900390816122e85790505090565b82805461230c9061290c565b90600052602060002090601f01602090048101928261232e5760008555612374565b82601f1061234757805160ff1916838001178555612374565b82800160010185558215612374579182015b82811115612374578251825591602001919060010190612359565b506123809291506123a2565b5090565b60405180608001604052806004906020820280368337509192915050565b5b8082111561238057600081556001016123a3565b6001600160e01b03198116811461187a57600080fd5b6000602082840312156123df57600080fd5b81356120da816123b7565b60005b838110156124055781810151838201526020016123ed565b838111156111b45750506000910152565b6000815180845261242e8160208601602086016123ea565b601f01601f19169290920160200192915050565b6020815260006120da6020830184612416565b60006020828403121561246757600080fd5b5035919050565b80356001600160a01b0381168114611e4e57600080fd5b6000806040838503121561249857600080fd5b6124a18361246e565b946020939093013593505050565b634e487b7160e01b600052604160045260246000fd5b60006001600160401b03808411156124df576124df6124af565b604051601f8501601f19908116603f01168101908282118183101715612507576125076124af565b8160405280935085815286868601111561252057600080fd5b858560208301376000602087830101525050509392505050565b6000806040838503121561254d57600080fd5b8235915060208301356001600160401b0381111561256a57600080fd5b8301601f8101851361257b57600080fd5b61258a858235602084016124c5565b9150509250929050565b80356001600160401b0381168114611e4e57600080fd5b600080600080608085870312156125c157600080fd5b6125ca85612594565b93506125d860208601612594565b92506125e660408601612594565b91506125f460608601612594565b905092959194509250565b60008060006060848603121561261457600080fd5b61261d8461246e565b925061262b6020850161246e565b9150604084013590509250925092565b60006020828403121561264d57600080fd5b6120da8261246e565b6020808252825182820181905260009190848201906040850190845b8181101561268e57835183529284019291840191600101612672565b50909695505050505050565b6000806000606084860312156126af57600080fd5b6126b88461246e565b95602085013595506040909401359392505050565b600080604083850312156126e057600080fd5b6126e98361246e565b9150602083013580151581146126fe57600080fd5b809150509250929050565b60008060008060008060008060008060006101608c8e03121561272b57600080fd5b6127348c61246e565b9a5060208c0135995060408c0135985060608c0135975060808c0135965060a08c0135955061276560c08d01612594565b945061277360e08d01612594565b93506127826101008d01612594565b92506127916101208d01612594565b91506101408c013590509295989b509295989b9093969950565b600080600080608085870312156127c157600080fd5b6127ca8561246e565b93506127d86020860161246e565b92506040850135915060608501356001600160401b038111156127fa57600080fd5b8501601f8101871361280b57600080fd5b61281a878235602084016124c5565b91505092959194509250565b6000806000806000806000806000806101408b8d03121561284657600080fd5b61284f8b61246e565b995060208b0135985061286460408c01612594565b975061287260608c01612594565b965061288060808c01612594565b955061288e60a08c01612594565b945061289c60c08c01612594565b93506128aa60e08c01612594565b92506128b96101008c01612594565b91506128c86101208c01612594565b90509295989b9194979a5092959850565b600080604083850312156128ec57600080fd5b6128f58361246e565b91506129036020840161246e565b90509250929050565b600181811c9082168061292057607f821691505b60208210811415611f0157634e487b7160e01b600052602260045260246000fd5b634e487b7160e01b600052603260045260246000fd5b60008551612969818460208a016123ea565b85519083019061297d818360208a016123ea565b85519101906129908183602089016123ea565b84519101906129a38183602088016123ea565b019695505050505050565b60208082526031908201527f4552433732313a207472616e736665722063616c6c6572206973206e6f74206f6040820152701ddb995c881b9bdc88185c1c1c9bdd9959607a1b606082015260800190565b634e487b7160e01b600052601160045260246000fd5b60008219821115612a2857612a286129ff565b500190565b6000600019821415612a4157612a416129ff565b5060010190565b60006001600160401b0380831681851681830481118215151615612a6e57612a6e6129ff565b02949350505050565b60006001600160401b0383811690831681811015612a9757612a976129ff565b039392505050565b60006001600160401b03808316818516808303821115612ac157612ac16129ff565b01949350505050565b60008351612adc8184602088016123ea565b835190830190612ac18183602088016123ea565b600082821015612b0257612b026129ff565b500390565b634e487b7160e01b600052601260045260246000fd5b600082612b2c57612b2c612b07565b500690565b600060ff821660ff811415612b4857612b486129ff565b60010192915050565b60208082526032908201527f4552433732313a207472616e7366657220746f206e6f6e20455243373231526560408201527131b2b4bb32b91034b6b83632b6b2b73a32b960711b606082015260800190565b6001600160a01b0385811682528416602082015260408101839052608060608201819052600090612bd690830184612416565b9695505050505050565b600060208284031215612bf257600080fd5b81516120da816123b7565b600082612c0c57612c0c612b07565b50049056fea264697066735822122011c97a4e3d89377101520d9c17e448120d7a15c1f9e7ce062bbf06f1dac2490064736f6c634300080b0033",
  "immutableReferences": {},
  "source": "// SPDX-License-Identifier: MIT\n\npragma solidity ^0.8.0;\n\nimport \"@openzeppelin/contracts/token/ERC721/extensions/ERC721URIStorage.sol\";\nimport \"@openzeppelin/contracts/access/Ownable.sol\";\n\ncontract ChingGu is ERC721URIStorage, Ownable {\n    /* Events */\n    event Rare(uint256 tokenId, uint256 degree);\n\n    mapping (address => uint256[]) internal _collectables;\n    uint256 tokenIdCounter;\n\n    /* Storage: Properties */\n    struct MBTI {\n        uint64 energy; // E <=> I, save 'E'\n        uint64 information; // S <=> N, save 'S'\n        uint64 decision; // T <=> F, save 'T'\n        uint64 relate; // J <=> P, save 'J'\n    }\n    struct Properties {\n        uint256 amount; // of training data\n        uint256 love;\n        uint256 rarity;\n        uint256 popularity;\n        MBTI mbti;\n        uint256 sp; // skill point\n    }\n    // key: [account][tokenId]\n    mapping(address => mapping(uint256 => Properties)) internal _properties;\n\n    uint64 private constant SP_PER_RARITY = 5;\n\n    constructor() ERC721(\"ChingGu-Profile\", \"CGP\") {}\n\n    /* Functions: Metadata */\n\n    // TODO: mint price\n    function mint(uint256 job) public {\n        uint256 tokenId = tokenIdCounter++;\n        address sender = _msgSender();\n\n        _mint(sender, tokenId);\n        _collectables[sender].push(tokenId);\n\n        Properties storage p = _properties[sender][tokenId];\n\n        // Rarity\n        uint64 rarity = _rarity(_random());\n        p.rarity = rarity; \n        emit Rare(tokenId, rarity);\n\n        if (job == 16) { // Neutral\n            p.sp = rarity * SP_PER_RARITY * 4;\n            p.mbti.energy = 50;\n            p.mbti.information = 50;\n            p.mbti.decision = 50;\n            p.mbti.relate = 50;\n        }\n        else {\n            bool[4] memory b = _binary(job);\n            if (b[0]) { p.mbti.energy = 50 - rarity * SP_PER_RARITY; }\n            else { p.mbti.energy = 50 + rarity * SP_PER_RARITY; }\n            if (b[1]) { p.mbti.information = 50 - rarity * SP_PER_RARITY; }\n            else { p.mbti.information = 50 + rarity * SP_PER_RARITY; }\n            if (b[2]) { p.mbti.decision = 50 - rarity * SP_PER_RARITY; }\n            else { p.mbti.decision = 50 + rarity * SP_PER_RARITY; }\n            if (b[3]) { p.mbti.relate = 50 - rarity * SP_PER_RARITY; }\n            else { p.mbti.relate = 50 + rarity * SP_PER_RARITY; }\n        }\n    }\n\n    /**\n     * TODO: Real random.\n     */\n    uint256 internal _seed;\n    function _random() internal returns(uint256) {\n        _seed = uint256(keccak256(abi.encode(_seed)) | bytes32(block.timestamp));\n        return _seed;\n    }\n\n    // mbti\n    /*\n        0: ESTJ\n        1: ISTJ\n        2: ENTJ\n        3: INTJ\n        4: ESFJ\n        5: ISFJ\n        6: ENFJ\n        7: INFJ\n        8: ESTP\n        9: ISTP\n        10: ENTP\n        11: INTP\n        12: ESFP\n        13: ISFP\n        14: ENFP\n        15: INFP\n    */\n    function _binary(uint256 x) internal pure returns(bool[4] memory y) {\n        require(x < 16, \"ChingGu: EXCEED_BOUNDARY.\");\n        require(x >= 0, \"ChingGu: EXCEED_BOUNDARY.\");\n\n        uint8 index;\n        while(x > 0) {\n            y[index++] = x % 2 == 1 ? true : false;\n            unchecked { x /= 2; }\n        }\n    }\n    function _rarity(uint256 r) internal pure returns(uint64 y) {\n        // for test purpose\n        if (r % 100 < 20) { return 5; }\n        else if(r % 100 < 40) { return 4; }\n        else if(r % 100 < 60) { return 3; }\n        else if(r % 100 < 80) { return 2; }\n        else { return 1; }\n\n        // if (r % 100 < 1) { return 5; } // legendary (1%)\n        // else if(r % 100 < 7) { return 4; } // unique (6%)\n        // else if(r % 100 < 25) { return 3; } // epic (18%)\n        // else if(r % 100 < 50) { return 2; } // rare (25%)\n        // else { return 1; } // normal (50%)\n    }\n\n    /* View & Pure Functions */\n    function collectables(address account) public view returns(uint256[] memory) {\n        return _collectables[account];\n    }\n    function getMBTI(\n        uint64 energy, // E <=> I, save 'E'\n        uint64 information, // S <=> N, save 'S'\n        uint64 decision, // T <=> F, save 'T'\n        uint64 relate // J <=> P, save 'J'\n    ) public pure returns(string memory) {\n        if (\n            energy == 50 &&\n            information == 50 &&\n            decision == 50 &&\n            relate == 50\n        ) {\n            return \"neutral\";\n        }\n        \n        bytes[4] memory mbti;\n        if (energy < 50) { mbti[0] = 'I'; }\n        else { mbti[0] = 'E'; }\n        if (information < 50) { mbti[1] = 'N'; }\n        else { mbti[1] = 'S'; }\n        if (decision < 50) { mbti[2] = 'F'; }\n        else { mbti[2] = 'T'; }\n        if (relate < 50) { mbti[3] = 'P'; }\n        else { mbti[3] = 'J'; }\n        return string(abi.encodePacked(mbti[0], mbti[1], mbti[2], mbti[3]));\n    }\n    function getMBTI(uint256 job) public pure returns(string memory) {\n        if (job == 16) { return \"neutral\"; }\n\n        require(job < 16, \"ChingGu: EXCEED_BOUNDARY.\");\n\n        bytes[4] memory mbti;\n        bool[4] memory b = _binary(job);\n        if (b[0]) { mbti[0] = 'I'; }\n        else { mbti[0] = 'E'; }\n        if (b[1]) { mbti[1] = 'N'; }\n        else { mbti[1] = 'S'; }\n        if (b[2]) { mbti[2] = 'F'; }\n        else { mbti[2] = 'T'; }\n        if (b[3]) { mbti[3] = 'P'; }\n        else { mbti[3] = 'J'; }\n        return string(abi.encodePacked(mbti[0], mbti[1], mbti[2], mbti[3]));\n    }\n\n    // TODO\n    function addAmount(address account, uint256 tokenId, uint256 amount) public {\n        Properties storage p = _properties[account][tokenId];\n        p.amount += amount;\n    }\n\n    // +1\n    function addLove(address account, uint256 tokenId, uint256 love) public {\n        Properties storage p = _properties[account][tokenId];\n        p.love += love;\n    }\n\n    // TODO\n    function addPopularity(address account, uint256 tokenId, uint256 popularity) public {\n        Properties storage p = _properties[account][tokenId];\n        p.popularity += popularity;\n    }\n\n    // TODO\n    function addSp(address account, uint256 tokenId, uint256 sp) public {\n        Properties storage p = _properties[account][tokenId];\n        p.sp += sp;\n    }\n\n    // E <=> I\n    // S <=> N\n    // T <=> F\n    // J <=> P\n    // TODO\n    function teach(\n        address account, uint256 tokenId,\n        uint64 E, uint64 I, uint64 S, uint64 N, uint64 T, uint64 F, uint64 J, uint64 P\n    ) public /* onlyOwner */ {\n        Properties storage p = _properties[account][tokenId];\n\n        require(p.sp >= (E + I + S + N + T + F + J + P), \"ChingGu: EXCEED_AMOUNT\");\n\n        p.sp -= (E + I + S + N + T + F + J + P);\n\n        p.mbti.energy += E -= I;\n        p.mbti.information += S -= N;\n        p.mbti.decision += T -= F; \n        p.mbti.relate += J -= P;\n    }\n\n    // /**\n    //  * TODO:\n    //  *\n    //  * - Ownable.\n    //  */\n    // function mint(address to, uint256 tokenId) public /* onlyOwner */ {\n    //     _mint(to, tokenId);\n    // }\n\n    /**\n     * @dev Base URI for computing {tokenURI}. If set, the resulting URI for each\n     * token will be the concatenation of the `baseURI` and the `tokenId`. Empty\n     * by default, can be overriden in child contracts.\n     *\n     * TODO:\n     *\n     * - Set baseURI.\n     */\n    function _baseURI() internal view virtual override returns (string memory) {\n        return \"\";\n    }\n\n    /**\n     * @dev Sets `_tokenURI` as the tokenURI of `tokenId`.\n     *\n     * Requirements:\n     *\n     * - `tokenId` must exist.\n     *\n     * TODO:\n     *\n     * - Ownable.\n     */\n    function setTokenURI(uint256 tokenId, string memory _tokenURI) public virtual {\n        _setTokenURI(tokenId, _tokenURI);\n    }\n\n    /* Functions: Properties */\n\n    function properties(\n        address account, uint256 tokenId\n    ) public view returns(\n        uint256 amount,\n        uint256 love, uint256 rarity, uint256 popularity,\n        uint64 energy, uint64 information, uint64 decision, uint64 relate,\n        uint256 sp\n    ) {\n        Properties memory p = _properties[account][tokenId];\n\n        amount = p.amount;\n        love = p.love;\n        rarity = p.rarity;\n        popularity = p.popularity;\n        energy = p.mbti.energy;\n        information = p.mbti.information;\n        decision = p.mbti.decision;\n        relate = p.mbti.relate;\n        sp = p.sp;\n    }\n\n    /**\n     * TODO: internal.\n     */\n    function _setProperties(\n        address account, uint256 tokenId,\n        uint256 amount,\n        uint256 love, uint256 rarity, uint256 popularity,\n        uint64 energy, uint64 information, uint64 decision, uint64 relate,\n        uint256 sp\n    ) public {\n        _properties[account][tokenId] = Properties({\n            amount: amount,\n            love: love, rarity: rarity, popularity: popularity,\n            mbti: MBTI({energy: energy, information: information, decision: decision, relate: relate}),\n            sp: sp\n        });\n    }\n}\n",
  "sourcePath": "/home/lukepark/kakaobrain/mbtinft-contracts/contracts/ChingGu_ERC721.sol",
  "compiler": {
    "name": "solc",
    "version": "0.8.11+commit.d7f03943.Emscripten.clang"
  },
  "schemaVersion": "3.4.5",
  "updatedAt": "2022-03-02T14:20:33.471Z",
  "devdoc": {
    "kind": "dev",
    "methods": {
      "approve(address,uint256)": {
        "details": "See {IERC721-approve}."
      },
      "balanceOf(address)": {
        "details": "See {IERC721-balanceOf}."
      },
      "getApproved(uint256)": {
        "details": "See {IERC721-getApproved}."
      },
      "isApprovedForAll(address,address)": {
        "details": "See {IERC721-isApprovedForAll}."
      },
      "name()": {
        "details": "See {IERC721Metadata-name}."
      },
      "owner()": {
        "details": "Returns the address of the current owner."
      },
      "ownerOf(uint256)": {
        "details": "See {IERC721-ownerOf}."
      },
      "renounceOwnership()": {
        "details": "Leaves the contract without owner. It will not be possible to call `onlyOwner` functions anymore. Can only be called by the current owner. NOTE: Renouncing ownership will leave the contract without an owner, thereby removing any functionality that is only available to the owner."
      },
      "safeTransferFrom(address,address,uint256)": {
        "details": "See {IERC721-safeTransferFrom}."
      },
      "safeTransferFrom(address,address,uint256,bytes)": {
        "details": "See {IERC721-safeTransferFrom}."
      },
      "setApprovalForAll(address,bool)": {
        "details": "See {IERC721-setApprovalForAll}."
      },
      "setTokenURI(uint256,string)": {
        "details": "Sets `_tokenURI` as the tokenURI of `tokenId`. Requirements: - `tokenId` must exist. TODO: - Ownable."
      },
      "supportsInterface(bytes4)": {
        "details": "See {IERC165-supportsInterface}."
      },
      "symbol()": {
        "details": "See {IERC721Metadata-symbol}."
      },
      "tokenURI(uint256)": {
        "details": "See {IERC721Metadata-tokenURI}."
      },
      "transferFrom(address,address,uint256)": {
        "details": "See {IERC721-transferFrom}."
      },
      "transferOwnership(address)": {
        "details": "Transfers ownership of the contract to a new account (`newOwner`). Can only be called by the current owner."
      }
    },
    "version": 1
  },
  "userdoc": {
    "kind": "user",
    "methods": {
      "_setProperties(address,uint256,uint256,uint256,uint256,uint256,uint64,uint64,uint64,uint64,uint256)": {
        "notice": "TODO: internal."
      }
    },
    "version": 1
  }
}