{
  "contractName": "MbtiNft",
  "abi": [
    {
      "inputs": [
        {
          "internalType": "address",
          "name": "cgv_",
          "type": "address"
        },
        {
          "internalType": "address",
          "name": "chinggu_",
          "type": "address"
        },
        {
          "internalType": "address",
          "name": "inferencer_",
          "type": "address"
        }
      ],
      "stateMutability": "nonpayable",
      "type": "constructor"
    },
    {
      "anonymous": false,
      "inputs": [
        {
          "indexed": true,
          "internalType": "address",
          "name": "previousOwner",
          "type": "address"
        },
        {
          "indexed": true,
          "internalType": "address",
          "name": "newOwner",
          "type": "address"
        }
      ],
      "name": "OwnershipTransferred",
      "type": "event"
    },
    {
      "inputs": [
        {
          "internalType": "int128",
          "name": "",
          "type": "int128"
        }
      ],
      "name": "accounts",
      "outputs": [
        {
          "internalType": "address",
          "name": "",
          "type": "address"
        }
      ],
      "stateMutability": "view",
      "type": "function"
    },
    {
      "inputs": [],
      "name": "cgv",
      "outputs": [
        {
          "internalType": "contract IERC20",
          "name": "",
          "type": "address"
        }
      ],
      "stateMutability": "view",
      "type": "function"
    },
    {
      "inputs": [],
      "name": "chinggu",
      "outputs": [
        {
          "internalType": "contract IERC721",
          "name": "",
          "type": "address"
        }
      ],
      "stateMutability": "view",
      "type": "function"
    },
    {
      "inputs": [],
      "name": "inferencer",
      "outputs": [
        {
          "internalType": "contract InferencerInterface",
          "name": "",
          "type": "address"
        }
      ],
      "stateMutability": "view",
      "type": "function"
    },
    {
      "inputs": [
        {
          "internalType": "int128",
          "name": "",
          "type": "int128"
        }
      ],
      "name": "keys",
      "outputs": [
        {
          "internalType": "bytes32",
          "name": "",
          "type": "bytes32"
        }
      ],
      "stateMutability": "view",
      "type": "function"
    },
    {
      "inputs": [
        {
          "internalType": "bytes32",
          "name": "",
          "type": "bytes32"
        }
      ],
      "name": "lockedTokens",
      "outputs": [
        {
          "internalType": "uint256",
          "name": "",
          "type": "uint256"
        }
      ],
      "stateMutability": "view",
      "type": "function"
    },
    {
      "inputs": [
        {
          "internalType": "address",
          "name": "",
          "type": "address"
        },
        {
          "internalType": "uint256",
          "name": "",
          "type": "uint256"
        }
      ],
      "name": "nonces",
      "outputs": [
        {
          "internalType": "uint256",
          "name": "",
          "type": "uint256"
        }
      ],
      "stateMutability": "view",
      "type": "function"
    },
    {
      "inputs": [],
      "name": "owner",
      "outputs": [
        {
          "internalType": "address",
          "name": "",
          "type": "address"
        }
      ],
      "stateMutability": "view",
      "type": "function"
    },
    {
      "inputs": [
        {
          "internalType": "bytes32",
          "name": "",
          "type": "bytes32"
        }
      ],
      "name": "pending",
      "outputs": [
        {
          "internalType": "bool",
          "name": "",
          "type": "bool"
        }
      ],
      "stateMutability": "view",
      "type": "function"
    },
    {
      "inputs": [
        {
          "internalType": "address",
          "name": "",
          "type": "address"
        }
      ],
      "name": "permit_nonces",
      "outputs": [
        {
          "internalType": "uint256",
          "name": "",
          "type": "uint256"
        }
      ],
      "stateMutability": "view",
      "type": "function"
    },
    {
      "inputs": [],
      "name": "queue",
      "outputs": [
        {
          "internalType": "int128",
          "name": "idCount",
          "type": "int128"
        }
      ],
      "stateMutability": "view",
      "type": "function"
    },
    {
      "inputs": [],
      "name": "renounceOwnership",
      "outputs": [],
      "stateMutability": "nonpayable",
      "type": "function"
    },
    {
      "inputs": [
        {
          "internalType": "int128",
          "name": "",
          "type": "int128"
        }
      ],
      "name": "tokenIds",
      "outputs": [
        {
          "internalType": "uint256",
          "name": "",
          "type": "uint256"
        }
      ],
      "stateMutability": "view",
      "type": "function"
    },
    {
      "inputs": [
        {
          "internalType": "address",
          "name": "newOwner",
          "type": "address"
        }
      ],
      "name": "transferOwnership",
      "outputs": [],
      "stateMutability": "nonpayable",
      "type": "function"
    },
    {
      "inputs": [
        {
          "internalType": "address",
          "name": "cgv_",
          "type": "address"
        }
      ],
      "name": "setCgv",
      "outputs": [],
      "stateMutability": "nonpayable",
      "type": "function"
    },
    {
      "inputs": [
        {
          "internalType": "address",
          "name": "chinggu_",
          "type": "address"
        }
      ],
      "name": "setChinggu",
      "outputs": [],
      "stateMutability": "nonpayable",
      "type": "function"
    },
    {
      "inputs": [
        {
          "internalType": "address",
          "name": "inferencer_",
          "type": "address"
        }
      ],
      "name": "setInferencer",
      "outputs": [],
      "stateMutability": "nonpayable",
      "type": "function"
    },
    {
      "inputs": [],
      "name": "getMax",
      "outputs": [
        {
          "internalType": "int128",
          "name": "",
          "type": "int128"
        },
        {
          "internalType": "int128",
          "name": "",
          "type": "int128"
        }
      ],
      "stateMutability": "view",
      "type": "function"
    },
    {
      "inputs": [
        {
          "internalType": "int128",
          "name": "id",
          "type": "int128"
        }
      ],
      "name": "getById",
      "outputs": [
        {
          "internalType": "int128",
          "name": "",
          "type": "int128"
        },
        {
          "internalType": "int128",
          "name": "",
          "type": "int128"
        }
      ],
      "stateMutability": "view",
      "type": "function"
    },
    {
      "inputs": [
        {
          "internalType": "uint256",
          "name": "i",
          "type": "uint256"
        }
      ],
      "name": "getByIndex",
      "outputs": [
        {
          "internalType": "int128",
          "name": "",
          "type": "int128"
        },
        {
          "internalType": "int128",
          "name": "",
          "type": "int128"
        }
      ],
      "stateMutability": "view",
      "type": "function"
    },
    {
      "inputs": [],
      "name": "size",
      "outputs": [
        {
          "internalType": "uint256",
          "name": "",
          "type": "uint256"
        }
      ],
      "stateMutability": "view",
      "type": "function"
    },
    {
      "inputs": [],
      "name": "idCount",
      "outputs": [
        {
          "internalType": "int128",
          "name": "",
          "type": "int128"
        }
      ],
      "stateMutability": "view",
      "type": "function"
    },
    {
      "inputs": [
        {
          "internalType": "int128",
          "name": "id",
          "type": "int128"
        }
      ],
      "name": "indices",
      "outputs": [
        {
          "internalType": "uint256",
          "name": "",
          "type": "uint256"
        }
      ],
      "stateMutability": "view",
      "type": "function"
    },
    {
      "inputs": [],
      "name": "allPriorities",
      "outputs": [
        {
          "internalType": "int128[]",
          "name": "ps",
          "type": "int128[]"
        },
        {
          "internalType": "int128",
          "name": "maxP",
          "type": "int128"
        },
        {
          "internalType": "int128",
          "name": "minP",
          "type": "int128"
        }
      ],
      "stateMutability": "view",
      "type": "function"
    },
    {
      "inputs": [],
      "name": "fastest",
      "outputs": [
        {
          "internalType": "int128",
          "name": "p",
          "type": "int128"
        }
      ],
      "stateMutability": "view",
      "type": "function"
    },
    {
      "inputs": [],
      "name": "faster",
      "outputs": [
        {
          "internalType": "int128",
          "name": "p",
          "type": "int128"
        }
      ],
      "stateMutability": "view",
      "type": "function"
    },
    {
      "inputs": [],
      "name": "average",
      "outputs": [
        {
          "internalType": "int128",
          "name": "p",
          "type": "int128"
        }
      ],
      "stateMutability": "view",
      "type": "function"
    },
    {
      "inputs": [],
      "name": "slower",
      "outputs": [
        {
          "internalType": "int128",
          "name": "p",
          "type": "int128"
        }
      ],
      "stateMutability": "view",
      "type": "function"
    },
    {
      "inputs": [],
      "name": "slowest",
      "outputs": [
        {
          "internalType": "int128",
          "name": "p",
          "type": "int128"
        }
      ],
      "stateMutability": "view",
      "type": "function"
    },
    {
      "inputs": [
        {
          "internalType": "address",
          "name": "account",
          "type": "address"
        },
        {
          "internalType": "uint256",
          "name": "tokenId",
          "type": "uint256"
        },
        {
          "internalType": "uint256",
          "name": "nonce",
          "type": "uint256"
        },
        {
          "internalType": "uint256",
          "name": "maxLength",
          "type": "uint256"
        },
        {
          "internalType": "uint256",
          "name": "inferencePrice",
          "type": "uint256"
        },
        {
          "internalType": "uint256",
          "name": "deadline",
          "type": "uint256"
        },
        {
          "internalType": "uint8",
          "name": "v",
          "type": "uint8"
        },
        {
          "internalType": "bytes32",
          "name": "r",
          "type": "bytes32"
        },
        {
          "internalType": "bytes32",
          "name": "s",
          "type": "bytes32"
        }
      ],
      "name": "permit",
      "outputs": [
        {
          "internalType": "int128",
          "name": "id",
          "type": "int128"
        }
      ],
      "stateMutability": "nonpayable",
      "type": "function"
    },
    {
      "inputs": [
        {
          "internalType": "bytes32",
          "name": "key",
          "type": "bytes32"
        },
        {
          "internalType": "uint256",
          "name": "tokenId",
          "type": "uint256"
        },
        {
          "internalType": "uint256",
          "name": "maxLength",
          "type": "uint256"
        },
        {
          "internalType": "uint256",
          "name": "inferencePrice",
          "type": "uint256"
        }
      ],
      "name": "upload",
      "outputs": [
        {
          "internalType": "int128",
          "name": "id",
          "type": "int128"
        }
      ],
      "stateMutability": "nonpayable",
      "type": "function"
    },
    {
      "inputs": [
        {
          "internalType": "address",
          "name": "account",
          "type": "address"
        },
        {
          "internalType": "uint256",
          "name": "tokenId",
          "type": "uint256"
        },
        {
          "internalType": "uint256",
          "name": "maxLength",
          "type": "uint256"
        },
        {
          "internalType": "uint256",
          "name": "inferencePrice",
          "type": "uint256"
        }
      ],
      "name": "upload",
      "outputs": [
        {
          "internalType": "int128",
          "name": "id",
          "type": "int128"
        }
      ],
      "stateMutability": "nonpayable",
      "type": "function"
    },
    {
      "inputs": [
        {
          "internalType": "int128",
          "name": "id",
          "type": "int128"
        }
      ],
      "name": "cancle",
      "outputs": [],
      "stateMutability": "nonpayable",
      "type": "function"
    },
    {
      "inputs": [],
      "name": "inference",
      "outputs": [],
      "stateMutability": "nonpayable",
      "type": "function"
    },
    {
      "inputs": [
        {
          "internalType": "address",
          "name": "account",
          "type": "address"
        },
        {
          "internalType": "uint256",
          "name": "tokenId",
          "type": "uint256"
        },
        {
          "internalType": "uint256",
          "name": "nonce",
          "type": "uint256"
        },
        {
          "internalType": "uint256",
          "name": "maxLength",
          "type": "uint256"
        },
        {
          "internalType": "uint256",
          "name": "inferencePrice",
          "type": "uint256"
        },
        {
          "internalType": "uint256",
          "name": "deadline",
          "type": "uint256"
        },
        {
          "internalType": "uint8",
          "name": "v",
          "type": "uint8"
        },
        {
          "internalType": "bytes32",
          "name": "r",
          "type": "bytes32"
        },
        {
          "internalType": "bytes32",
          "name": "s",
          "type": "bytes32"
        }
      ],
      "name": "inferenceWithPermit",
      "outputs": [],
      "stateMutability": "nonpayable",
      "type": "function"
    },
    {
      "inputs": [
        {
          "internalType": "address",
          "name": "account",
          "type": "address"
        },
        {
          "internalType": "uint256",
          "name": "tokenId",
          "type": "uint256"
        },
        {
          "internalType": "uint256",
          "name": "amount",
          "type": "uint256"
        },
        {
          "internalType": "uint64",
          "name": "E",
          "type": "uint64"
        },
        {
          "internalType": "uint64",
          "name": "I",
          "type": "uint64"
        },
        {
          "internalType": "uint64",
          "name": "S",
          "type": "uint64"
        },
        {
          "internalType": "uint64",
          "name": "N",
          "type": "uint64"
        },
        {
          "internalType": "uint64",
          "name": "T",
          "type": "uint64"
        },
        {
          "internalType": "uint64",
          "name": "F",
          "type": "uint64"
        },
        {
          "internalType": "uint64",
          "name": "J",
          "type": "uint64"
        },
        {
          "internalType": "uint64",
          "name": "P",
          "type": "uint64"
        }
      ],
      "name": "teach",
      "outputs": [],
      "stateMutability": "nonpayable",
      "type": "function"
    }
  ],
  "bytecode": "0x60806040523480156200001157600080fd5b506040516200264938038062002649833981016040819052620000349162000160565b6200003f336200009e565b600180546001600160a01b03199081166001600160a01b038681169190911790925560028054821685841617905560038054909116918316919091179055620000956004620000ee602090811b6200129e17901c565b505050620001aa565b600080546001600160a01b038381166001600160a01b0319831681178455604051919092169283917f8be0079c531659141344cd1fd0a4f28419497f9722a3daafe3b4186f6b6457e09190a35050565b600181015462000140576040805180820190915260008082526020808301828152600180860180549182018155845291909220925191516001600160801b03908116600160801b029216919091179101555b50565b80516001600160a01b03811681146200015b57600080fd5b919050565b6000806000606084860312156200017657600080fd5b620001818462000143565b9250620001916020850162000143565b9150620001a16040850162000143565b90509250925092565b61248f80620001ba6000396000f3fe608060405234801561001057600080fd5b506004361061021c5760003560e01c80637c4f7eb111610125578063cee47e6d116100ad578063e6e462381161007c578063e6e46238146104d9578063e8d33588146104e4578063ea0f63fd14610504578063f2fde38b14610524578063f6f7301e1461053757600080fd5b8063cee47e6d14610491578063d45dc954146104b1578063dd08e29a146104c4578063e10d29ee146104cc57600080fd5b80639bbc8bc8116100f45780639bbc8bc81461043b578063a5ab6c0514610443578063b250717a14610456578063b6e1605a1461045e578063b83671361461047e57600080fd5b80637c4f7eb1146103e657806382c2b76c146103f95780638da5cb5b14610422578063949d225d1461043357600080fd5b8063502e1a16116101a85780636c36eaf1116101775780636c36eaf1146103a85780636e908f89146103bb5780636f07a9c7146103c35780636fa5d2ad146103d6578063715018a6146103de57600080fd5b8063502e1a161461034257806355efe58c1461036d5780635fb3fbe01461038257806368c6a0961461039557600080fd5b80633075f552116101ef5780633075f552146102e25780633dd34115146102ea578063444f8516146103055780634756fa6914610318578063486c1c641461032f57600080fd5b806312a360c1146102215780631808eeb81461025157806326207bd1146102845780632d883a73146102b5575b600080fd5b600254610234906001600160a01b031681565b6040516001600160a01b0390911681526020015b60405180910390f35b61027461025f366004611ead565b600a6020526000908152604090205460ff1681565b6040519015158152602001610248565b6102a7610292366004611ed5565b600f0b60009081526006602052604090205490565b604051908152602001610248565b6102c86102c3366004611ead565b61054a565b60408051600f93840b81529190920b602082015201610248565b6102c861056c565b6102f261058d565b604051600f9190910b8152602001610248565b600154610234906001600160a01b031681565b6103206105ac565b60405161024893929190611ef2565b6102f261033d366004611f4d565b6106fc565b6102a7610350366004611f94565b600b60209081526000928352604080842090915290825290205481565b61038061037b366004611fc0565b610741565b005b610380610390366004611ffa565b610796565b600354610234906001600160a01b031681565b6102f26103b63660046120ba565b61097c565b610380610bc2565b6103806103d1366004611ed5565b610c2f565b6102f2610da6565b610380610dc0565b6103806103f43660046120ba565b610df6565b610234610407366004611ed5565b6008602052600090815260409020546001600160a01b031681565b6000546001600160a01b0316610234565b6102a7610f91565b6102f2610fa2565b6102f261045136600461213d565b610fbc565b6102f2611112565b6102a761046c366004611ed5565b60096020526000908152604090205481565b61038061048c366004611fc0565b611143565b6102a761049f366004611ed5565b60076020526000908152604090205481565b6103806104bf366004611fc0565b61118f565b6102f26111db565b6004546102f290600f0b81565b600454600f0b6102f2565b6102a76104f2366004611ead565b600c6020526000908152604090205481565b6102a7610512366004611fc0565b600d6020526000908152604090205481565b610380610532366004611fc0565b6111f4565b6102c8610545366004611ed5565b61128f565b600080806105596004856112eb565b8051602090910151909590945092505050565b600080600061057b6004611372565b80516020909101519094909350915050565b60006105976105ac565b5091508190506105a68161218e565b91505090565b606060008060006105bd6004611391565b9050600181516105cd91906121b4565b67ffffffffffffffff8111156105e5576105e56121cb565b60405190808252806020026020018201604052801561060e578160200160208202803683370190505b50935060018151111561065e578060018151811061062e5761062e6121e1565b60200260200101516020015192508060018151811061064f5761064f6121e1565b60200260200101516020015191505b60015b81518110156106f557600082828151811061067e5761067e6121e1565b6020026020010151602001519050808660018461069b91906121b4565b815181106106ab576106ab6121e1565b600f92830b602091820292909201015281810b9086900b12156106d0578094506106e2565b80600f0b84600f0b13156106e2578093505b50806106ed816121f7565b915050610661565b5050909192565b600061070b8533868686611406565b336000908152600b602090815260408083208884529091528120805492935090610734836121f7565b9190505550949350505050565b6000546001600160a01b031633146107745760405162461bcd60e51b815260040161076b90612212565b60405180910390fd5b600280546001600160a01b0319166001600160a01b0392909216919091179055565b6001546001600160a01b03166379cc6790336040516001600160e01b031960e084901b1681526001600160a01b039091166004820152602481018c9052604401600060405180830381600087803b1580156107f057600080fd5b505af1158015610804573d6000803e3d6000fd5b50505050600081838587898b8d8f61081c9190612247565b6108269190612247565b6108309190612247565b61083a9190612247565b6108449190612247565b61084e9190612247565b6108589190612247565b905061086581600a612273565b67ffffffffffffffff168a116108bd5760405162461bcd60e51b815260206004820152601760248201527f4d4254494e46543a20494e56414c49445f414d4f554e54000000000000000000604482015260640161076b565b60025460405163e0c3006b60e01b81526001600160a01b038e81166004830152602482018e905267ffffffffffffffff808d166044840152808c166064840152808b166084840152808a1660a484015280891660c484015280881660e484015280871661010484015285166101248301529091169063e0c3006b9061014401600060405180830381600087803b15801561095657600080fd5b505af115801561096a573d6000803e3d6000fd5b50505050505050505050505050505050565b6000428510156109c15760405162461bcd60e51b815260206004820152601060248201526f135095125391950e881156141254915160821b604482015260640161076b565b604080516001600160a01b038c1660208201529081018a90526060810189905260009060800160408051601f1981840301815291815281516020928301206001600160a01b038e166000908152600d90935290822080549193507fb4739a75ec8852fc3f62bdfd066ffa398d94859237fb48c553b1be760055249391849184610a49836121f7565b9091555060408051602081019490945283019190915260608201526080810188905260a00160408051601f198184030181529082905280516020918201207f19457468657265756d205369676e6564204d6573736167653a0a33320000000091830191909152603c820152605c0160408051601f198184030181528282528051602091820120600080855291840180845281905260ff8a169284019290925260608301889052608083018790529092509060019060a0016020604051602081039080840390855afa158015610b22573d6000803e3d6000fd5b5050604051601f1901519150506001600160a01b03811615801590610b5857508c6001600160a01b0316816001600160a01b0316145b610ba45760405162461bcd60e51b815260206004820152601a60248201527f4d4254494e46543a20494e56414c49445f5349474e4154555245000000000000604482015260640161076b565b610bb1838e8e8d8d611406565b9d9c50505050505050505050505050565b6000806000610bcf611526565b6000838152600a6020526040902054929750909550935060ff169150610c0990505760405162461bcd60e51b815260040161076b906122a3565b6000838152600a60205260409020805460ff19169055610c2a8383836115ca565b505050565b600f81900b6000908152600860205260409020546001600160a01b0316338114610c9b5760405162461bcd60e51b815260206004820152601760248201527f4d4254494e46543a20494e56414c49445f53454e444552000000000000000000604482015260640161076b565b600f82900b600090815260076020908152604080832054808452600a9092529091205460ff16610cdd5760405162461bcd60e51b815260040161076b906122a3565b6000818152600c60205260409020548015610d7d576000828152600c602052604080822091909155600154905163a9059cbb60e01b81526001600160a01b038581166004830152602482018490529091169063a9059cbb906044016020604051808303816000875af1158015610d57573d6000803e3d6000fd5b505050506040513d601f19601f82011682018060405250810190610d7b91906122d1565b505b610d868461171b565b50505060009384525050600a6020525060409020805460ff191690555050565b6000610db06105ac565b92508291506105a69050816122f3565b6000546001600160a01b03163314610dea5760405162461bcd60e51b815260040161076b90612212565b610df460006117ac565b565b6000546001600160a01b03163314610e205760405162461bcd60e51b815260040161076b90612212565b604051636c36eaf160e01b81526001600160a01b038a1660048201526024810189905260448101889052606481018790526084810186905260a4810185905260ff841660c482015260e4810183905261010481018290526000903090636c36eaf190610124016020604051808303816000875af1158015610ea5573d6000803e3d6000fd5b505050506040513d601f19601f82011682018060405250810190610ec9919061231b565b9050600080610ed6611526565b5092945092505050600f82810b9084900b14610f345760405162461bcd60e51b815260206004820152601960248201527f4d4254494e46543a20494e56414c49445f5052494f5249545900000000000000604482015260640161076b565b6000818152600a602052604090205460ff16610f625760405162461bcd60e51b815260040161076b906122a3565b6000818152600a60205260409020805460ff19169055610f83818d8d6115ca565b505050505050505050505050565b6000610f9d60046117fc565b905090565b6000610fac6105ac565b92508291506105a690508161218e565b6002546040516331a9108f60e11b8152600481018590526000916001600160a01b0387811692911690636352211e90602401602060405180830381865afa15801561100b573d6000803e3d6000fd5b505050506040513d601f19601f8201168201806040525081019061102f9190612338565b6001600160a01b0316146110855760405162461bcd60e51b815260206004820152601a60248201527f4d4254494e46543a20494e56414c49445f4f574e455253484950000000000000604482015260640161076b565b6001600160a01b0385166000908152600b602090815260408083208784529091528120805490826110b5836121f7565b90915550604080516001600160a01b0389166020820152908101879052606081018290529091506000906080016040516020818303038152906040528051906020012090506111078188888888611406565b979650505050505050565b600080600061111f6105ac565b9093509150600290506111328284612355565b61113c91906123ba565b9250505090565b6000546001600160a01b0316331461116d5760405162461bcd60e51b815260040161076b90612212565b600380546001600160a01b0319166001600160a01b0392909216919091179055565b6000546001600160a01b031633146111b95760405162461bcd60e51b815260040161076b90612212565b600180546001600160a01b0319166001600160a01b0392909216919091179055565b60006111e56105ac565b5091508190506105a6816122f3565b6000546001600160a01b0316331461121e5760405162461bcd60e51b815260040161076b90612212565b6001600160a01b0381166112835760405162461bcd60e51b815260206004820152602660248201527f4f776e61626c653a206e6577206f776e657220697320746865207a65726f206160448201526564647265737360d01b606482015260840161076b565b61128c816117ac565b50565b6000808061055960048561181f565b600181015461128c57604080518082019091526000808252602080830182815260019485018054958601815583529120915190516001600160801b03908116600160801b02911617910155565b604080518082019091526000808252602082015260018301548210611323576040805180820190915260008082526020820152611369565b826001018281548110611338576113386121e1565b600091825260209182902060408051808201909152910154600f81810b8352600160801b909104900b918101919091525b90505b92915050565b604080518082019091526000808252602082015261136c8260016112eb565b606081600101805480602002602001604051908101604052809291908181526020016000905b828210156113fb5760008481526020908190206040805180820190915290840154600f81810b8352600160801b909104900b818301528252600190920191016113b7565b505050509050919050565b6000858152600a602052604081205460ff16156114355760405162461bcd60e51b815260040161076b906122a3565b600061144183856123f8565b6001546040516323b872dd60e01b81526001600160a01b038981166004830152306024830152604482018490529293509116906323b872dd906064016020604051808303816000875af115801561149c573d6000803e3d6000fd5b505050506040513d601f19601f820116820180604052508101906114c091906122d1565b506000878152600c6020526040812080548392906114df908490612417565b9091555061150190506114f96114f485611854565b6118c2565b88888861193f565b6000978852600a6020526040909720805460ff19166001179055509495945050505050565b60008060008060008061153960046119ab565b8051600f90810b6000908152600760208181526040808420548651860b85526008808452828620548851880b87526009808652848820548a518a0b89529686528488208890558951890b885291855283872080546001600160a01b0319169055885190970b86528352908420939093558451940151939a9399509097506001600160a01b0390911695509350915050565b6000838152600c602052604080822080549290556001549051630852cd8d60e31b8152600481018390526001600160a01b03909116906342966c6890602401600060405180830381600087803b15801561162357600080fd5b505af1158015611637573d6000803e3d6000fd5b5050600354604051631476069b60e01b8152600481018890526001600160a01b038781166024830152604482018790529091169250631476069b9150606401600060405180830381600087803b15801561169057600080fd5b505af11580156116a4573d6000803e3d6000fd5b50506002546040516302a1b98960e51b81526001600160a01b0387811660048301526024820187905260016044830152909116925063543731209150606401600060405180830381600087803b1580156116fd57600080fd5b505af1158015611711573d6000803e3d6000fd5b5050505050505050565b6000808080808061172d6004886119ca565b600f88810b60008181526007602090815260408083208054600880855283862080548a518a0b88526009808852868920549989529488905591865280546001600160a01b0319169055885190970b85529083529083209290925584519401519399509297509195506001600160a01b0316935091505091939590929450565b600080546001600160a01b038381166001600160a01b0319831681178455604051919092169283917f8be0079c531659141344cd1fd0a4f28419497f9722a3daafe3b4186f6b6457e09190a35050565b600181015460009061180f57600061136c565b60018281015461136c91906121b4565b6040805180820190915260008082526020820152600f82900b60009081526002840160205260409020546113699084906112eb565b60006001600160ff1b038211156118be5760405162461bcd60e51b815260206004820152602860248201527f53616665436173743a2076616c756520646f65736e27742066697420696e2061604482015267371034b73a191a9b60c11b606482015260840161076b565b5090565b600060016001607f1b031982128015906118e3575060016001607f1b038213155b6118be5760405162461bcd60e51b815260206004820152602760248201527f53616665436173743a2076616c756520646f65736e27742066697420696e20316044820152663238206269747360c81b606482015260840161076b565b60008061194d6004876119ff565b8051600f90810b60009081526007602090815260408083208a90558451840b83526008825280832080546001600160a01b038b166001600160a01b0319909116179055845190930b8252600990522084905551915050949350505050565b604080518082019091526000808252602082015261136c826001611a9e565b6040805180820190915260008082526020820152600f82900b6000908152600284016020526040902054611369908490611a9e565b60408051808201909152600080825260208201526001830154611a2557611a258361129e565b8254600f0b836000611a368361218e565b82546001600160801b039182166101009390930a928302919092021990911617905550600183810180548201808255600091909152604080518082019091528554600f90810b825285900b6020820152916113699186918491611a9991906121b4565b611c27565b6040805180820190915260008082526020820152600183015482101580611ac3575081155b15611ae25750604080518082019091526000808252602082015261136c565b6000836001018381548110611af957611af96121e1565b600091825260208083206040805180820182529390910154600f81810b808652600160801b909204900b8484015284526002880190915282208290556001808701805492945091611b4a91906121b4565b81548110611b5a57611b5a6121e1565b600091825260209182902060408051808201909152910154600f81810b8352600160801b909104900b918101919091526001860180549192509080611ba157611ba161242f565b6000828152602081208201600019908101919091550190556001850154841015611c1f57611bd0858286611c27565b611c1f85866001018681548110611be957611be96121e1565b600091825260209182902060408051808201909152910154600f81810b8352600160801b909104900b9181019190915286611ced565b509392505050565b6001811480611c74575060018301611c40600283612445565b81548110611c5057611c506121e1565b6000918252602091829020015490830151600160801b909104600f90810b91900b13155b15611c8457610c2a838383611e52565b611cdd8360018101611c97600285612445565b81548110611ca757611ca76121e1565b600091825260209182902060408051808201909152910154600f81810b8352600160801b909104900b9181019190915283611e52565b610c2a8383611a99600285612445565b60018301546000611cff8360026123f8565b9050808211611d1857611d13858585611e52565b611e4b565b6000856001018281548110611d2f57611d2f6121e1565b600091825260209182902060408051808201909152910154600f81810b8352600160801b909104900b918101919091529050611d6c826001612417565b83118015611db657508060200151600f0b86600101836001611d8e9190612417565b81548110611d9e57611d9e6121e1565b600091825260209091200154600160801b9004600f0b135b15611e0e5760018601611dc8836121f7565b92508281548110611ddb57611ddb6121e1565b600091825260209182902060408051808201909152910154600f81810b8352600160801b909104900b9181019190915290505b8460200151600f0b8160200151600f0b13611e3357611e2e868686611e52565b611e49565b611e3e868286611e52565b611e49868684611ced565b505b5050505050565b81836001018281548110611e6857611e686121e1565b600091825260208083208451948201516001600160801b03908116600160801b0295169490941793909101929092559251600f0b835260029093019092526040902055565b600060208284031215611ebf57600080fd5b5035919050565b80600f0b811461128c57600080fd5b600060208284031215611ee757600080fd5b813561136981611ec6565b606080825284519082018190526000906020906080840190828801845b82811015611f2e578151600f0b84529284019290840190600101611f0f565b505050600f95860b918401919091529290930b60409091015292915050565b60008060008060808587031215611f6357600080fd5b5050823594602084013594506040840135936060013592509050565b6001600160a01b038116811461128c57600080fd5b60008060408385031215611fa757600080fd5b8235611fb281611f7f565b946020939093013593505050565b600060208284031215611fd257600080fd5b813561136981611f7f565b803567ffffffffffffffff81168114611ff557600080fd5b919050565b60008060008060008060008060008060006101608c8e03121561201c57600080fd5b8b3561202781611f7f565b9a5060208c0135995060408c0135985061204360608d01611fdd565b975061205160808d01611fdd565b965061205f60a08d01611fdd565b955061206d60c08d01611fdd565b945061207b60e08d01611fdd565b935061208a6101008d01611fdd565b92506120996101208d01611fdd565b91506120a86101408d01611fdd565b90509295989b509295989b9093969950565b60008060008060008060008060006101208a8c0312156120d957600080fd5b89356120e481611f7f565b985060208a0135975060408a0135965060608a0135955060808a0135945060a08a0135935060c08a013560ff8116811461211d57600080fd5b8093505060e08a013591506101008a013590509295985092959850929598565b6000806000806080858703121561215357600080fd5b843561215e81611f7f565b966020860135965060408601359560600135945092505050565b634e487b7160e01b600052601160045260246000fd5b600081600f0b60016001607f1b038114156121ab576121ab612178565b60010192915050565b6000828210156121c6576121c6612178565b500390565b634e487b7160e01b600052604160045260246000fd5b634e487b7160e01b600052603260045260246000fd5b600060001982141561220b5761220b612178565b5060010190565b6020808252818101527f4f776e61626c653a2063616c6c6572206973206e6f7420746865206f776e6572604082015260600190565b600067ffffffffffffffff80831681851680830382111561226a5761226a612178565b01949350505050565b600067ffffffffffffffff8083168185168183048111821515161561229a5761229a612178565b02949350505050565b6020808252601490820152734d4254494e46543a20494e56414c49445f4b455960601b604082015260600190565b6000602082840312156122e357600080fd5b8151801515811461136957600080fd5b600081600f0b60016001607f1b031981141561231157612311612178565b6000190192915050565b60006020828403121561232d57600080fd5b815161136981611ec6565b60006020828403121561234a57600080fd5b815161136981611f7f565b600081600f0b83600f0b600082128260016001607f1b030382138115161561237f5761237f612178565b8260016001607f1b031903821281161561239b5761239b612178565b50019392505050565b634e487b7160e01b600052601260045260246000fd5b600081600f0b83600f0b806123d1576123d16123a4565b60016001607f1b03198214600019821416156123ef576123ef612178565b90059392505050565b600081600019048311821515161561241257612412612178565b500290565b6000821982111561242a5761242a612178565b500190565b634e487b7160e01b600052603160045260246000fd5b600082612454576124546123a4565b50049056fea2646970667358221220e7881bcd67a89dd648c936786389b1d5186ef4fccae73f7f7edc642cadc6985864736f6c634300080b0033",
  "immutableReferences": {},
  "source": "// SPDX-License-Identifier: MIT\n\npragma solidity ^0.8.0;\n\nimport \"./interfaces/MbtiNftInterface.sol\";\nimport \"./PriorityQueue/Heap.sol\";\nimport \"./interfaces/InferencerInterface.sol\";\nimport \"@openzeppelin/contracts/token/ERC20/IERC20.sol\";\nimport \"@openzeppelin/contracts/token/ERC721/IERC721.sol\";\nimport \"@openzeppelin/contracts/token/ERC20/utils/SafeERC20.sol\";\nimport \"@openzeppelin/contracts/access/Ownable.sol\";\nimport \"@openzeppelin/contracts/utils/Context.sol\";\nimport \"@openzeppelin/contracts/utils/math/SafeCast.sol\";\n\ninterface IERC20Burnable {\n    function burn(uint256 amount) external;\n    function burnFrom(address account, uint256 amount) external;\n}\n\ninterface IChingGu {\n    function addLove(address account, uint256 tokenId, uint256 love) external;\n    function teach(\n        address account, uint256 tokenId,\n        uint64 E, uint64 I, uint64 S, uint64 N, uint64 T, uint64 F, uint64 J, uint64 P\n    ) external;\n}\n\n/**\n * @notice\n * \n * Key functions:\n * - `upload`: User uploads key of task.\n * - `inference`: After user requests `upload`, service provider executes inference and submit the result.\n * - `download`: Check responses.\n *\n * TODO:\n *\n * - Ownable.\n * - Implement EIP1559 methods to priority queue.\n */\ncontract MbtiNft is MbtiNftInterface, Context, Ownable {\n    using SafeERC20 for IERC20;\n    using SafeCast for uint256;\n    using SafeCast for int256;\n\n    /* Storage: Tokens */\n    IERC20 public cgv;\n    IERC721 public chinggu;\n    InferencerInterface public inferencer;\n\n    /* Storage: Priority Queue */\n    using Heap for Heap.Data;\n    Heap.Data public queue; // request queue\n    mapping(int128 => bytes32) public keys; // request (id => key)\n    mapping(int128 => address) public accounts; // request (id => account)\n    mapping(int128 => uint256) public tokenIds; // request (id => tokenIn)\n    mapping(bytes32 => bool) public pending; // whether key is in the queue or not.\n\n    /* Storage: Inference */\n    // get counter (nonce) by `nonces[account][tokenId]`.\n    mapping(address => mapping(uint256 => uint256)) public nonces;\n    // get amount of locked token by `lockedTokens[key]`.\n    mapping(bytes32 => uint256) public lockedTokens;\n\n    // keccak256(\"Permit(bytes32 key,uint256 permit_nonce,uint256 deadline)\");\n    bytes32 private constant PERMIT_TYPEHASH = 0xb4739a75ec8852fc3f62bdfd066ffa398d94859237fb48c553b1be7600552493;\n    mapping(address => uint256) public permit_nonces;\n\n    /* Events */\n    // TBA\n\n    constructor(address cgv_, address chinggu_, address inferencer_) {\n        cgv = IERC20(cgv_);\n        chinggu = IERC721(chinggu_);\n        inferencer = InferencerInterface(inferencer_);\n\n        queue.init(); // priority queue\n    }\n\n    function setCgv(address cgv_) public onlyOwner {\n        cgv = IERC20(cgv_);\n    }\n\n    function setChinggu(address chinggu_) public onlyOwner {\n        chinggu = IERC721(chinggu_);\n    }\n\n    function setInferencer(address inferencer_) public onlyOwner {\n        inferencer = InferencerInterface(inferencer_);\n    }\n\n    /* Functions: Priority Queue */\n    function _push(int128 priority, bytes32 key, address account, uint256 tokenId) internal returns(int128) {\n        Heap.Node memory n = queue.insert(priority);\n        keys[n.id] = key;\n        accounts[n.id] = account;\n        tokenIds[n.id] = tokenId;\n        return n.id;\n    }\n    function _pop() internal returns(int128, int128, bytes32, address, uint256) {\n        Heap.Node memory n = queue.extractMax();\n        bytes32 key = keys[n.id];\n        address account = accounts[n.id];\n        uint256 tokenId = tokenIds[n.id];\n        delete keys[n.id];\n        delete accounts[n.id];\n        delete tokenIds[n.id];\n        return (n.id, n.priority, key, account, tokenId);\n    }\n    function _popById(int128 id) internal returns(int128, int128, bytes32, address, uint256) {\n        Heap.Node memory n = queue.extractById(id);\n        bytes32 key = keys[id];\n        address account = accounts[id];\n        uint256 tokenId = tokenIds[n.id];\n        delete keys[id];\n        delete accounts[id];\n        delete tokenIds[n.id];\n        return (n.id, n.priority, key, account, tokenId);\n    }\n\n    // Test Purpose\n    function getMax() public view returns(int128, int128) {\n        Heap.Node memory n = queue.getMax();\n        return (n.id, n.priority);\n    }\n    function getById(int128 id) public view returns(int128, int128) {\n        Heap.Node memory n = queue.getById(id);\n        return (n.id, n.priority);\n    }\n    function getByIndex(uint i) public view returns(int128, int128) { // same as getByRank\n        Heap.Node memory n =  queue.getByIndex(i);\n        return (n.id, n.priority);\n    }\n    function size() public view returns(uint){\n        return queue.size();\n    }\n    function idCount() public view returns(int128){\n        return queue.idCount;\n    }\n    function indices(int128 id) public view returns(uint){ // same as ranks\n        return queue.indices[id];\n    }\n\n    /* Functions: Inference Speed */\n    /**\n     * @notice Check all priorities to calculate proper `inferencePrice`.\n     *\n     * Speed:\n     *\n     * - Fastest: max + 1\n     * - Faster\n     * - Average\n     * - Slower\n     * - Slowest: min - 1\n     */\n    function allPriorities() public view returns(int128[] memory ps, int128 maxP, int128 minP) {\n        Heap.Node[] memory ns = queue.dump();\n        ps = new int128[](ns.length - 1);\n        if (ns.length > 1) {\n            maxP = ns[1].priority;\n            minP = ns[1].priority;\n        }\n        for (uint256 i = 1; i < ns.length; i++) {\n            int128 p = ns[i].priority;\n            ps[i - 1] = p;\n            if (maxP < p) {maxP = p;}\n            else if (minP > p) {minP = p;}\n        }\n    }\n    function fastest() public view returns(int128 p) {\n        (, p, ) = allPriorities();\n        p++;\n    }\n    function faster() public view returns(int128 p) {\n        (, p, ) = allPriorities();\n        p--;\n    }\n    function average() public view returns(int128 p) {\n        int128 maxP;\n        int128 minP;\n        (, maxP, minP) = allPriorities();\n        p = (maxP + minP) / 2;\n    }\n    function slower() public view returns(int128 p) {\n        (, , p) = allPriorities();\n        p++;\n    }\n    function slowest() public view returns(int128 p) {\n        (, , p) = allPriorities();\n        p--;\n    }\n\n    /* Functions: Inference */\n\n\t/**\n     * @notice User can skip `upload()` with `permit()`.\n     * Instead, service provider calls `inferenceWithPermit()` only.\n     *\n     * References:\n     *\n     * - https://github.com/Uniswap/v2-core/blob/master/contracts/UniswapV2ERC20.sol\n     */\n    function permit(\n        address account, uint256 tokenId, uint256 nonce,\n        uint256 maxLength, uint256 inferencePrice,\n        uint256 deadline,\n        uint8 v, bytes32 r, bytes32 s\n    ) external returns(int128 id) {\n        require(deadline >= block.timestamp, 'MBTINFT: EXPIRED');\n\n        /* get key */\n        // `key` = kaccak256(address, tokenId, nonce)\n        bytes32 key = keccak256(abi.encode(account, tokenId, nonce));\n\n        /* get digest */\n        bytes32 digest = keccak256(\n            abi.encodePacked(\n                '\\x19Ethereum Signed Message:\\n32',\n                keccak256(abi.encode(\n                    PERMIT_TYPEHASH,\n                    key,\n                    permit_nonces[account]++,\n                    deadline\n                ))\n            )\n        );\n        address recoveredAddress = ecrecover(digest, v, r, s);\n        require(recoveredAddress != address(0) && recoveredAddress == account, 'MBTINFT: INVALID_SIGNATURE');\n        \n        /* Logic what you want */\n        id = _upload(key, account, tokenId, maxLength, inferencePrice);\n    }\n\n    /**\n     * @notice WARNING: Test purpose only.\n     *\n     * Do not use `upload` with non-exist key.\n     * If so, you can miss (freeze) tokens.\n     */\n    function upload(\n        bytes32 key,\n        uint256 tokenId,\n        uint256 maxLength, uint256 inferencePrice\n    ) public returns(int128 id) {\n        id = _upload(key, _msgSender(), tokenId, maxLength, inferencePrice);\n        \n        // Forcely update nonce\n        nonces[_msgSender()][tokenId]++;\n    }\n\n    /**\n     * @notice User must do `approve` before `upload`.\n     */\n    function upload(\n        address account, uint256 tokenId,\n        uint256 maxLength, uint256 inferencePrice\n    ) public returns(int128 id) {\n        /* conditions */\n        require(chinggu.ownerOf(tokenId) == account, 'MBTINFT: INVALID_OWNERSHIP');\n\n        /* get key */\n        // `key` = kaccak256(address, tokenId, nonce)\n        uint256 nonce = nonces[account][tokenId]++;\n        bytes32 key = keccak256(abi.encode(account, tokenId, nonce));\n\n        /* upload */\n        id = _upload(key, account, tokenId, maxLength, inferencePrice);\n    }\n\n    function _upload(\n        bytes32 key,\n        address account, uint256 tokenId,\n        uint256 maxLength, uint256 inferencePrice\n    ) internal returns(int128 id) {\n        /* condition */\n        require(!pending[key], 'MBTINFT: INVALID_KEY');\n\n        /* lock token */\n        uint256 amount = maxLength * inferencePrice;\n        cgv.transferFrom(account, address(this), amount);\n        lockedTokens[key] += amount;\n\n        /* push queue */\n        id = _push(inferencePrice.toInt256().toInt128(), key, account, tokenId);\n        pending[key] = true;\n    }\n\n    /**\n     * @notice User can cancle there own request(s).\n     */\n    function cancle(int128 id) public {\n        /* condition */\n        address account = accounts[id];\n        require(_msgSender() == account, 'MBTINFT: INVALID_SENDER');\n\n        /* get key */\n        bytes32 key = keys[id];\n        require(pending[key], 'MBTINFT: INVALID_KEY');\n\n        /* unlock token */\n        uint256 amount = lockedTokens[key];\n        if (amount > 0) {\n            lockedTokens[key] = 0;\n            cgv.transfer(account, amount);\n        }\n\n        /* remove element from queue */\n        _popById(id);\n        pending[key] = false;\n    }\n\n    /**\n     * @notice Server replies at the highest priority request.\n     */\n    function inference() public /* onlyOwner */ {\n        bytes32 key;\n        address account;\n        uint256 tokenId;\n        (, , key, account, tokenId) = _pop(); // remove element from queue.\n        require(pending[key], 'MBTINFT: INVALID_KEY'); // check condition.\n        pending[key] = false;\n\n        _inference(key, account, tokenId);\n    }\n\n    /**\n     * TODO:\n     *\n     * - Optimization: queue activities, pending array.\n     */\n    function inferenceWithPermit(\n        address account, uint256 tokenId, uint256 nonce,\n        uint256 maxLength, uint256 inferencePrice,\n        uint256 deadline,\n        uint8 v, bytes32 r, bytes32 s\n    ) public onlyOwner {\n        /* upload */\n        int128 id = this.permit(account, tokenId, nonce, maxLength, inferencePrice, deadline, v, r, s);\n        \n        int128 maxId;\n        bytes32 key;\n        (maxId, , key, ,) = _pop(); // remove element from queue.\n\n        /* condition */\n        require(maxId == id, 'MBTINFT: INVALID_PRIORITY');\n        require(pending[key], 'MBTINFT: INVALID_KEY'); // check condition.\n        pending[key] = false;\n\n        /* inference */\n        _inference(key, account, tokenId);\n    }\n\n    function _inference(bytes32 key, address account, uint256 tokenId) internal {\n        /* burn token */\n        uint256 amount = lockedTokens[key];\n        lockedTokens[key] = 0;\n        IERC20Burnable(address(cgv)).burn(amount);\n\n        /* inferencer */\n        inferencer.inferenceCall(key, account, tokenId);\n\n        /* update love */\n        IChingGu(address(chinggu)).addLove(account, tokenId, 1);\n    }\n\n    // function download() public {};\n\n    /* Functions: Skills */\n\n    /**\n     * @notice Current ratio is (10 cgv = 1 sp)\n     */\n    function teach(\n        address account, uint256 tokenId,\n        uint256 amount,\n        uint64 E, uint64 I, uint64 S, uint64 N, uint64 T, uint64 F, uint64 J, uint64 P\n    ) public {\n        IERC20Burnable(address(cgv)).burnFrom(_msgSender(), amount);\n\n        uint64 total = E + I + S + N + T + F + J + P;\n        require(amount > (total * 10), 'MBTINFT: INVALID_AMOUNT');\n\n        IChingGu(address(chinggu)).teach(\n            account, tokenId,\n            E, I, S, N, T, F, J, P\n        );\n    }\n\n    /* Functions: Etc */\n}\n",
  "sourcePath": "/home/lukepark/kakaobrain/mbtinft-contracts/contracts/MbtiNft_Main.sol",
  "compiler": {
    "name": "solc",
    "version": "0.8.11+commit.d7f03943.Emscripten.clang"
  },
  "schemaVersion": "3.4.5",
  "updatedAt": "2022-03-02T14:20:33.539Z",
  "devdoc": {
    "kind": "dev",
    "methods": {
      "owner()": {
        "details": "Returns the address of the current owner."
      },
      "renounceOwnership()": {
        "details": "Leaves the contract without owner. It will not be possible to call `onlyOwner` functions anymore. Can only be called by the current owner. NOTE: Renouncing ownership will leave the contract without an owner, thereby removing any functionality that is only available to the owner."
      },
      "transferOwnership(address)": {
        "details": "Transfers ownership of the contract to a new account (`newOwner`). Can only be called by the current owner."
      }
    },
    "version": 1
  },
  "userdoc": {
    "kind": "user",
    "methods": {
      "allPriorities()": {
        "notice": "Check all priorities to calculate proper `inferencePrice`. Speed: - Fastest: max + 1 - Faster - Average - Slower - Slowest: min - 1"
      },
      "cancle(int128)": {
        "notice": "User can cancle there own request(s)."
      },
      "inference()": {
        "notice": "Server replies at the highest priority request."
      },
      "inferenceWithPermit(address,uint256,uint256,uint256,uint256,uint256,uint8,bytes32,bytes32)": {
        "notice": "TODO: - Optimization: queue activities, pending array."
      },
      "permit(address,uint256,uint256,uint256,uint256,uint256,uint8,bytes32,bytes32)": {
        "notice": "User can skip `upload()` with `permit()`. Instead, service provider calls `inferenceWithPermit()` only. References: - https://github.com/Uniswap/v2-core/blob/master/contracts/UniswapV2ERC20.sol"
      },
      "teach(address,uint256,uint256,uint64,uint64,uint64,uint64,uint64,uint64,uint64,uint64)": {
        "notice": "Current ratio is (10 cgv = 1 sp)"
      },
      "upload(address,uint256,uint256,uint256)": {
        "notice": "User must do `approve` before `upload`."
      },
      "upload(bytes32,uint256,uint256,uint256)": {
        "notice": "WARNING: Test purpose only. Do not use `upload` with non-exist key. If so, you can miss (freeze) tokens."
      }
    },
    "notice": " Key functions: - `upload`: User uploads key of task. - `inference`: After user requests `upload`, service provider executes inference and submit the result. - `download`: Check responses. TODO: - Ownable. - Implement EIP1559 methods to priority queue.",
    "version": 1
  }
}